:020000040800F2
:10000000484C0020AD020008817C0008716C00089B
:10001000797C00086116000839AA00080000000079
:1000200000000000000000000000000051930008E4
:10003000E919000800000000317D0008B1990008AE
:10004000C7020008C7020008C7020008C70200086C
:10005000C7020008C7020008C7020008C70200085C
:10006000C7020008C7020008C7020008C70200084C
:10007000C7020008C7020008C7020008C70200083C
:10008000C7020008C7020008C7020008C70200082C
:10009000C7020008C7020008C7020008C70200081C
:1000A000C7020008C7020008C7020008C70200080C
:1000B000C7020008C7020008C7020008C7020008FC
:1000C000C7020008C7020008C7020008C7020008EC
:1000D000C7020008C7020008C7020008B1A900084B
:1000E000C7020008C702000800000000C70200089D
:1000F000C7020008C7020008C7020008C7020008BC
:10010000C7020008C7020008C7020008C7020008AB
:10011000599D0008C7020008B99B0008C7020008E3
:10012000C7020008C7020008C7020008C70200088B
:10013000C7020008C7020008C7020008C70200087B
:1001400000000000000000000000000000000000AF
:10015000C7020008C702000871190008C70200089A
:10016000C7020008C7020008C7020008C70200084B
:10017000C7020008C702000861190008C70200088A
:10018000C7020008C7020008C7020008C70200082B
:10019000C7020008C7020008C7020008C70200081B
:1001A000C7020008C7020008C7020008C70200080B
:1001B000C7020008C7020008C7020008C7020008FB
:1001C000C7020008C7020008C7020008C7020008EB
:1001D000C7020008C7020008C7020008C7020008DB
:1001E000C7020008C7020008C7020008C7020008CB
:1001F000C7020008C7020008C7020008C7020008BB
:10020000C7020008C7020008C7020008C7020008AA
:10021000C7020008C7020008C7020008C70200089A
:10022000C7020008C7020008C7020008000000005B
:10023000C7020008C702000800000000C70200084B
:10024000C7020008C7020008C7020008C70200086A
:10025000C7020008C7020008C7020008C70200085A
:10026000C7020008C7020008C7020008C70200084A
:10027000C7020008C7020008C7020008000000000B
:10028000C7020008C7020008C702000800000000FB
:1002900000000000C7020008DFF80CD000F0DCFA14
:1002A00000480047E9AA0008484C0020064880475B
:1002B00006480047FEE7FEE7FEE7FEE7FEE7FEE74B
:1002C000FEE7FEE7FEE7FEE7D99A0008990200087C
:1002D0002DE9F05F0546002092469B46884606467B
:1002E000814640241BE0284641464746224600F00E
:1002F000B3F853465A46C01A914110D311461846D6
:10030000224600F09AF82D1A67EB01084F46224664
:100310000120002100F091F817EB00094E41201E4A
:10032000A4F10104DFDC484631462A464346BDE8D5
:10033000F09F10B5431A934209D28318881803E03E
:1003400010F8011D03F8011D521EF9D210BD40EA3C
:1003500001039B0703D009E008C9121F08C0042A43
:10036000FAD203E011F8013B00F8013B521EF9D22A
:1003700010BDD2B201E000F8012B491EFBD270473C
:100380000022F6E710B513460A4604461946FFF761
:10039000F0FF204610BD10B5044604E00B7800F8CD
:1003A000013B03B1491C521EF8D2204610BD00008B
:1003B00070B50F4D00B92868002412E00A4602E02B
:1003C0009E4203D0521C1378002BF9D1DAB222439B
:1003D00005D02BB124B1002100F8011B04E0044634
:1003E000401C0678002EE9D12860204670BD000030
:1003F0000000002070B506460AF00EFF04680546AE
:100400000A220021304600F037F82C6070BD30B56C
:100410000B46014600202022012409E021FA02F5C2
:100420009D4205D303FA02F5491B04FA02F528445C
:10043000151EA2F10102F1DC30BD202A04DB203AB6
:1004400000FA02F1002070479140C2F1200320FA27
:1004500003F3194390407047202A04DB203A21FA25
:1004600002F00021704721FA02F3D040C2F12002CD
:1004700091400843194670472DE9F04791460F46D1
:1004800080460446002614F8015B2DB100F00EFAF8
:100490000068405DC007F6D12B2D02D02D2D18D05D
:1004A000641E4A463946204600F004FA27B13968EE
:1004B000A14201D1C7F8008071054FF002040BD5AD
:1004C0004042002803DD0AF0A7FE0460A007BDE853
:1004D000F08746F48066E4E70028F8DA0AF09CFE2C
:1004E00004606FF00040F2E72DE9FE4F804681EA9C
:1004F0000300C00F0C46009021F0004123F000459E
:10050000B8EB0200A94105D24046214690461C4660
:100510000B46024623F00040104347D0270DC7F397
:100520000A00C3F30A510290401A019040286BDA86
:10053000C3F3130040F4801B0098924620B10023BF
:10054000D2EB030A63EB0B0B01985946C0F1400252
:100550005046FFF772FF06460D4650465946019A2F
:1005600000F092F910EB08006141002487EA115273
:1005700084EAE7731A4340D0009A62B3019A012AD1
:100580004FEA075215DC001B61EB02014FF00042FD
:1005900002EA0752CDE90042001C41F580113246C3
:1005A0002B4600F0E5F903B0BDE8F08F4046214648
:1005B000F9E7001B61EB0201001C41F580130018F4
:1005C0005B412018A2F5001747EB030140EAD57004
:1005D000B6196D4111E06D084FEA360645EAC0755F
:1005E0004FEA0752001B61EB0201001C41F580112C
:1005F00049084FEA30000019514132462B4603B0FA
:10060000BDE8F04F00F0A5B900980122400000239A
:10061000D0EB020263EBE073009821464FEAE074EE
:10062000B8EB000061EB0401E9E783F000435BE70E
:1006300081F0004158E72DE9FE4F81EA030404F000
:10064000004421F0004100944FF0000B23F00043E0
:1006500050EA01045ED052EA03045BD0C3F30A54AB
:10066000C1F30A552C44A4F2F3340194A0FB0254C4
:10067000C1F3130141F48011C3F3130343F4801356
:1006800001FB024400FB034E840A970A44EA8154AA
:1006900047EA8357A4FB076802958D0A05FB078587
:1006A0004FEA932C04FB0C542705029D4FEA065891
:1006B00047EA1637B5EB08056EEB070C870E920E6E
:1006C00047EA811742EA8312A7FB0201B6EB0B014E
:1006D00064EB00042B0D43EA0C335E1844EB1C5012
:1006E000DA465146E7FB0201C5F313044FEA0B3328
:1006F00043EA14534FEA0432019C43EA0603A4F18F
:100700000C040294009CCDE900B400F031F903B070
:10071000BDE8F08F00200146F9E72DE9F04D81EAB0
:10072000030404F0004B21F0004514464FF0000A8A
:1007300023F0004150EA050220D054EA01021DD006
:10074000C5F30A570246C5F31303C1F31300C1F3FF
:100750000A5640F4801543F48013A7EB0608101BDB
:10076000D64608F2FD3873EB050002D308F1010804
:1007700001E092185B41B8F1000F03DA0020014656
:10078000BDE8F08D00204FF48011064684460EE04F
:10079000171B73EB050705D3121B63EB0503064319
:1007A0004CEA010C49084FEA300092185B4150EACC
:1007B0000107EDD152EA030012D082EA040083EA75
:1007C0000501084305D0101BAB4106D201220023CE
:1007D00006E000224FF0004302E06FF001025310E8
:1007E0001AEB06004CEB085110EB0A0041EB0B0131
:1007F000BDE8F04D00F0ADB8C1F30A52C1F31301EA
:1008000040F2FF3341F480119A4202DA002001469F
:10081000704740F233439A42A2F2334202DC524222
:10082000FFF71ABEFFF709BE30B5041E71F10004D0
:1008300004DB4FF00044404264EB0101141E73F1ED
:10084000000405DB1C464FF00043524263EB0403F7
:10085000994208BF904230BD1CB509480090094834
:1008600001900546009C06E0E06840F0010394E832
:10087000070098471034AC42F6D3FFF711FD000093
:1008800040CF000860CF0008202A06DBCB17203AB3
:1008900041FA02F043EAE07306E041FA02F3D04085
:1008A000C2F1200291400843194670470048704742
:1008B0009CBB00082DE9F05F8246007800271546B2
:1008C0008B460AF10104B946302801D09DB113E0EE
:1008D00014F8010B0127782803D0582801D045B11E
:1008E0000AE00DB1102D07D10027102514F8010BD7
:1008F00002E0082500E00A250026B0460EE005FBD0
:10090000080005FB06F1012701EB10461FFA80F8ED
:10091000B6F5803F00D3B94614F8010B294600F024
:1009200075F80028EBDABBF1000F05D00FB1641E9B
:1009300000E05446CBF80040B9F1000F06D00AF0B1
:100940006BFC02210160C81EBDE8F09F48EA06402A
:10095000FAE710B5141E73F1000408DA401C41F1E7
:10096000000192185B411A4301D120F0010010BD33
:100970002DE9F04D92469B4611B1B1FA81F202E0A9
:10098000B0FA80F220329046FFF757FD04460F463A
:1009900040EA0A0041EA0B0153465A46084313D085
:1009A000114653EA010019D0C8F140025046FFF742
:1009B00053FD05460E46504659464246FFF73DFD5B
:1009C000084305D0012004E020463946BDE8F08DFB
:1009D0000020054346EAE0762C4337430A98630536
:1009E000E40AA0EB08000022FD0A44EA47540A305A
:1009F00002D500200146E9E7010510196941DDE94A
:100A0000084500196941BDE8F04DA2E73A2800D237
:100A1000303820F02002412A01D3A2F13700884269
:100A200001D34FF0FF3070472DE9F04F40F2440200
:100A30004EF2B220C2F200024FF6C33C4BF2CB5A48
:100A4000CDF2CA405578CDF2D76CCFF2C37A002DE3
:100A500000F0358140F2702E41F6A90B05F0030835
:100A60000024042DC2F2000EC0F6000BC0F0AB80D3
:100A7000AEF5F87705F0FC09032600BFF11EA7F8D4
:100A8000F01187F8F211B11EA7F86C12731C87F8E9
:100A90006E12711EA7F8E812351D87F8EA1207F5E5
:100AA000F87187F800424B4587F8044287F80842FE
:100AB00087F80C4287F8104287F8144287F81842EA
:100AC00087F81C4287F86642C7F8F341C7F8F74138
:100AD000A7F8FB41C7F868B2C7E9880C87F8284235
:100AE00087F83C42C7E98D0A87F87C4287F8804244
:100AF00087F8844287F8884287F88C4287F89042CA
:100B000087F8944287F8984287F8E242C7F86F4224
:100B1000C7F87342A7F87742C7F8E4B287F8A4424F
:100B2000C7E9A70C87F8B842C7E9AC0A87F8F842CA
:100B300087F8FC4287F8004387F8044387F80843A6
:100B400087F80C4387F8104387F8144387F85E430F
:100B5000C7F8EF42C7F8EB42A7F8F342C7F860B313
:100B600087F82043C7E9C60C87F83443C7E9CB0AA6
:100B7000A7F8646387F866632E4687F8744387F89E
:100B8000784387F87C4387F8804387F8844387F865
:100B9000884387F88C4387F8904387F8DA43A7F8AF
:100BA0006F43C7F86B43C7F86743C7F8DCB387F8F0
:100BB0009C43C7E9E50C87F8B043C7E9EA0A0F464A
:100BC0007FF45CAFEC1EB8F1000F78D0C4EB441199
:100BD0000025B8F1010F0EEB81062EF82140B4700C
:100BE000357435753576357786F8205086F824507B
:100BF00086F8285086F82C5086F87650C6F80350B0
:100C0000C6F80750A6F80B50C6F878B0C6E90C0C29
:100C100086F8385086F84C50C6E9110A4FD0611C4E
:100C2000B8F1020FC1EB41160EEB86072EF8261025
:100C3000B9703D743D753D763D7787F8205087F853
:100C4000245087F8285087F82C5087F87650C7F83A
:100C50000350C7F80750A7F80B50C7F878B0C7E99A
:100C60000C0C87F8385087F84C50C7E9110A26D089
:100C7000A11CC1EB41140EEB84052EF82410A970C1
:100C80000021297429752976297785F8201085F89F
:100C9000241085F8281085F82C1085F87610C5F8F2
:100CA0000310C5F80710A5F80B10C5F878B0C5E912
:100CB0000C0C85F8381085F84C10C5E9110A9378AA
:100CC000002B00F0A38041F2302803F0030E042B28
:100CD0004FF00004C2F2000852D3A8F5A87603F042
:100CE000FC090321082300BFCD1EA6F850518D1E1C
:100CF000A6F8A4514D1EA6F8F85106F5A8724F1C8F
:100D00000D1D86F85231C6E95540C6F85CC14F4505
:100D100086F86041C6E95B0A86F87441C6F8A041CE
:100D200086F8A631C6E96A40C6F8B0C186F8B44173
:100D3000C6E9700A86F8C841C6F8F44186F8FA3167
:100D4000C6E97F40C6F804C286F80842C6E9850AAB
:100D500086F81C42C6F84842A6F84C12294686F886
:100D60004E32C6E99440C6F858C286F85C42C6E9DD
:100D70009A0A86F87042C6F89C421646B4D1EC1E18
:100D8000BEF1000F42D05425082604FB05F10023D4
:100D900004FB0587BEF1010F28F80140BE70C7E9CA
:100DA0000130C7F80CC03B74C7E9070A87F8243044
:100DB0003B652BD0611CBEF1020F01FB05F701FB67
:100DC000058528F80710AE70C5E90130C5F80CC0DC
:100DD0002B74C5E9070A85F824302B6508BFBDE8E8
:100DE000F08FA11C542301FB03F701FB038328F8B8
:100DF0000710082199700021C3E90110C3F80CC045
:100E00001974C3E9070A83F824101965BDE8F08F47
:100E100080B584B08DF80C10014466318DF80B005C
:100E20000844114408444BF6AB2308308DF80F00FA
:100E300044F22470C0F2FE03CDF805300323ADF870
:100E40000930C2F200008DF80D200B228DF80E1033
:100E50000DF10501642305F09BFE04B080BD000088
:100E600080B584B040F244014BF6AB20C2F20001E1
:100E7000CCF2FE10CDF8050003204978ADF809004A
:100E800000208DF80B008DF80D0001F127008DF882
:100E90000C1001448DF80E0001F133008DF80F00A5
:100EA00044F22470C2F200000DF105010B2264230C
:100EB00005F06EFE04B080BD70B598B004464BF6E8
:100EC000AB20CCF2FE2001905320ADF80800206842
:100ED000CDF80A00207901AE04F130018DF80E0042
:100EE000D4F80500CDF80F00D4F80920CDF8132070
:100EF00006F113001422FFF71CFA04F1440106F175
:100F000027003222FFF715FA00200021002200BF3F
:100F1000335C582819440A440CD0331804305C78E8
:100F20009D78DB7821440A4429440A4419440A4440
:100F3000EEE700BF44F224708DF85D108DF85E205E
:100F4000C2F2000001A95B22642305F021FE18B063
:100F500070BD00000000000080B586B04BF6AB20ED
:100F60000DF10601CEF2FE30CDF806000A20122265
:100F7000C0F2BA10CDF80A004FF00120CDF80E00F3
:100F800040F200106423CBF60020CDF8120048F6A2
:100F9000C870ADF8160044F22470C2F2000005F0EB
:100FA000F7FD06B080BD000080B584B040F244017A
:100FB0004BF6AB20C2F20001CEF2FE00CDF80500E8
:100FC0000320ADF8090001208DF80B00887800217E
:100FD0008DF80D1000F147018DF80C0008448DF8D4
:100FE0000E1030388DF80F0044F224700DF1050119
:100FF000C2F200000B22642305F0CAFD04B080BDDC
:101000002DE9F04F85B083784FF0000C00224FF0AF
:10101000010A082B00F284804FF0000B4FF000090A
:101020000025DFE803F013130B0B05051919050064
:1010300004254FF0000A01220EE000BF02254FF008
:10104000000A01224FF0010906E000BF01224FF023
:10105000000A4FF0010B01254BF6AB21CEF2FE1139
:10106000CDF8061005F102018DF80A1001880DF186
:1010700006088DF80BC0ADF80C1042B1011D08F147
:1010800008002A46012D98BF0122FFF752F99DF86A
:1010900006109DF80A709DF807209DF80B309DF80A
:1010A00008409DF80C009DF809600A44144411445E
:1010B00026442144BA193144134411449DF80D20AB
:1010C00018441944BAF1000F01441044014415D1E9
:1010D0009DF80E20BBF1000F104401440ED19DF885
:1010E0000F20B9F1000F1044014407D19DF81020E2
:1010F0009DF81130104401441844014405EB0802E6
:101100006423107244F22470517205F10A02C2F293
:101110000000414605F03CFD05B0BDE8F08F00BF82
:101120004FF0000B4FF00009002595E7000000008C
:1011300070B596B004464BF6AB20CEF2FE20CDF84B
:1011400007004920ADF80B0020780DF107068DF857
:101150000D00B4F8010004F10801ADF80E0006F12D
:1011600009001422FFF7E5F804F11C0106F11D0047
:101170003222FFF7DEF80020002100223318345C11
:101180004C2821445C789D780A4421440A4429442F
:101190000A4405D0DB78043019440A44EEE700BF66
:1011A00044F224708DF856108DF85720C2F20000DA
:1011B0000DF107015122642305F0EAFC16B070BD61
:1011C00080B59AB010EE102AA0F150038DF80700F8
:1011D0004FF6AB6100EB4300ADF804101344FF2160
:1011E0008DF806100821ADF8081010EE901A18447A
:1011F00003EB1223184403EB1243CDF80A201844E2
:1012000003EB1262CDF80E1010440A44104402EBB6
:101210001122104402EB1142104402EB1161084408
:101220008DF812105C388DF8130044F2247001A977
:10123000C2F200001022642305F0AAFC1AB080BD9F
:1012400010B59AB010EE103AA0F1480E8DF80700D4
:101250004FF6AB6100EB4E04ADF804100EEB03004B
:10126000FF218DF806101021ADF8081010EE901A2D
:10127000044400EB1320044400EB1340044400EB4F
:101280001360CDF80A302318084411EE102A0344E5
:1012900000EB1120034400EB1140034400EB11600C
:1012A000CDF80E101918104411EE90CA014400EB4D
:1012B0001220014400EB1240014400EB1260014493
:1012C0006044014400EB1C20014400EB1C4001443D
:1012D00000EB1C6001448DF81A00A1F15C008DF850
:1012E0001B0044F22470CDF81220C2F2000001A9C4
:1012F00018226423CDF816C005F04AFC1AB010BDC0
:1013000070B584B040F28615C2F2000569782129D3
:1013100000F2A281DFE811F02200A001A001A001EB
:10132000A001A001A001A001A001A0016A00360057
:10133000A000A001A001A001A001A001A001A001A6
:10134000B000400070007A00A001A001A001A0013F
:10135000A001A001BA00B6002C004400AB2840F068
:101360007B810020E8700A20A5F8010004B070BD60
:10137000A978EA786B189142987243D3212068705B
:1013800004B070BDFF2818BFBA2840F071800C204F
:10139000687004B070BD00BF1620687004B070BDE6
:1013A0002979C02900F07C80C12940F05181A87AB8
:1013B000B5F80B1068710028298100F0058101281B
:1013C00040F0468140F24400C2F20000007801285B
:1013D00040F03E81288940F27021C2F20001C0EB4A
:1013E000401001EB8000FFF767FD31E1FE283FD19F
:1013F0000B20687004B070BDA978EA786B18914230
:10140000987249D2481CA87004B070BD2979E129AE
:1014100000F0B280E02940F01B81A97AB5F80B20DA
:10142000697110292A8100F21381DFE811F011009F
:10143000E300D700E70011011101110111011101B1
:101440001101110111011101110111011101F3002B
:10145000FFF782FDFCE000BF00F0FE012871C0290B
:1014600000F0AE80E02903D11420687004B070BD94
:101470000020687004B070BDE8701520687004B07A
:1014800070BD00BF2020687004B070BDE8701F20E0
:10149000687004B070BD00BF1720687004B070BDE4
:1014A000A97A40F2702395F803C0C2F20003E971F3
:1014B000C1EB4112BCF1040F4FF0010103EB8202BA
:1014C00082F8761030D30023002402E00133082B89
:1014D0002AD0D118497901390829F7D8DFE801F075
:1014E0001C1C080812120606120000BFEEE700BF1F
:1014F00055FA84F1023402EB8306B1F80D10318203
:10150000E4E700BF55FA84F1043402EB8306D1F816
:101510000D103161DAE700BF55FA84F1013402EBB6
:101520008306497B3174D1E705EB0C014BF6AB2206
:10153000C0F2FE02CDF80520897A0322ADF8092019
:10154000C0228DF80B2042188DF80D0002F1260004
:101550008DF80C1001448DF80E00A1F112008DF8E9
:101560000F0044F22470C2F200000DF105010B22BD
:10157000642305F00DFB6BE040F244026989C2F27E
:10158000000229819278914262D2064641F23022CD
:101590005420C2F2000201FB00208378082B4ED8B1
:1015A000DFE803F046463E3E06064D4D060000BF0E
:1015B000542301FB032104222A70EA684A603EE0BA
:1015C0001E20687004B070BD40F24400C2F20000FA
:1015D000007801283CD1FFF743FC39E0288941F22B
:1015E00030215422C2F2000100FB0210FFF708FD77
:1015F0002EE000BFFFF7D8FC2AE000BF288941F2A7
:1016000030215422C2F2000100FB0210FFF790FDCE
:101610001EE000BFE9780246E0202944897A15E0FF
:10162000542301FB032102222A70AA898A8006E042
:10163000542301FB032101222A702A7B0A7106F040
:101640005BFBE87832462844817AE120FFF7E0FB33
:10165000002068700120A87104B070BD0000000077
:10166000FEE7000000000000B0B58EB044F2E0409C
:101670000025C5F60200CDE90C55CDE90A55CDE9A6
:101680000855CDE90655CDE90455CDE90255016867
:1016900041F001010160016801F00101019101992E
:1016A000816841F001018160806809A900F00100B2
:1016B00001900198202009900220CDE90A050C90A4
:1016C00001200D900020C5F6020001F0D9FA40F289
:1016D00020144FF08041C2F20004204640F8041F5D
:1016E000EF21C0E901154FF4B971C0E9031580215C
:1016F000816104F0B1FC08B100F07AF96020029039
:10170000B92002A9CDE90305201D0022069504F0A9
:101710005FFA08B100F06CF9204640F26C03C2F2A7
:10172000000340F2E73250F8041FCA621D782261BC
:10173000642D28BF64251D7048F21F53CA6AC5F284
:10174000EB1301326A430025A2FB03235A094A63C3
:10175000002104F065FD25700EB0B0BD0000000052
:10176000B0B540F220140021C2F200040025201D73
:1017700004F056FD2570B0BD10B540F220140021D4
:10178000C2F20004201D04F09FFC0120207010BD57
:101790002DE9F04381B040F22016C2F200063778FE
:1017A00057B1301D002104F03BFD87F0010030707F
:1017B00001B0BDE8F08300BF40F2702040F2660542
:1017C000C2F20000C2F2000500F578740021204644
:1017D0002A4600F071F8287840F26C0948F21F5848
:1017E000C2F20009C5F2EB1860B1642828BF64207A
:1017F000716889F80000CA6A01325043A0FB0802F0
:101800005009486340F264050121C2F200052046F8
:101810002A4600F051F82888B8B144F24021726895
:10182000C0F20F01B1FBF0F00138D06299F800105E
:101830003061642928BF642189F80010D06A013022
:101840004843A0FB080148095063301D002104F003
:101850003BFC87F00100307001B0BDE8F083000070
:10186000F0B581B040F24404C2F200046078C8B11F
:1018700040F270210026C2F20001002701F1760536
:1018800004E000BF01377C3587420BD2297801295B
:10189000F8D1D5F802102E700029F3D0884760786F
:1018A000F0E700BF01B0F0BD40F600004FF400517A
:1018B000C5F6020001F0D0BA43185B79A3F1010C20
:1018C000BCF1080F0AD8DFE80CF011110B0B05056D
:1018D0000909050000EB810000691060704700BF36
:1018E00000EB8100008A1080704700BF00EB810090
:1018F000007C107070470000104441717047000078
:101900002DE9F04381B000F130040E46074600F1A6
:1019100044054621204698469146FEF731FD1322A4
:1019200020463146FEF737FD312228464946FEF76C
:1019300032FDC7F8788001B0BDE8F08300000000F8
:10194000806B816C496D022906D0012180F8351029
:10195000C16C41F04001C16400F012B90000000008
:1019600040F2D000C2F2000000F02AB900000000EE
:1019700040F6B810C2F2000000F06EBD000000009A
:10198000B0B540F2F41543F2B454C2F20005C2F20D
:101990000004D5E912122160296DA16042F278514C
:1019A000C2F20001A8686260CA69E2600A6A226144
:1019B000496A616106F01CFCA9684FF48052204618
:1019C00006F09AFC4CF620724CF60471C0F6000248
:1019D000C0F60001002808BF1146A8610846BDE80E
:1019E000B0400AF087B80000704700000000000017
:1019F000EFF3108072B600BFFEE7000000000000A9
:101A000070B582B040F270200DF10705C2F20000FF
:101A1000002100F559742A462046FFF74DFF9DF836
:101A2000070040F25C26C2F20006012101382A4676
:101A3000B0FA80F04009B0722046FFF73DFF9DF8F4
:101A4000070002212A460138B0FA80F04009F072FE
:101A50002046FFF731FF9DF8070003212A46013891
:101A6000B0FA80F0400930732046FFF725FF9DF85B
:101A7000070004212A460138B0FA80F0400970734B
:101A80002046FFF719FF9DF8070005212A46013877
:101A9000B0FA80F04009B0732046FFF70DFF9DF8C3
:101AA000070006212A460138B0FA80F04009F07399
:101AB0002046FFF701FF9DF8070007212A4601385D
:101AC000B0FA80F0400930742046FFF7F5FE9DF82B
:101AD00007000138B0FA80F04009707402B070BDA0
:101AE000B0B540F200444FF40051C5F6020404F5CD
:101AF000406001F0A9F940F6B4158000C2F200057B
:101B00004FF480612870204601F09EF9297801EB9E
:101B1000400028704FF48051204601F095F940F2C2
:101B200067012A78C2F2000110442870C3B20A7813
:101B30009A420BD1451EEDB2062D07D23524EC405A
:101B4000E40703D008A0425DD0B2B0BD072B07D098
:101B5000072A05D1C0F107020870D0B2B0BD00BF9E
:101B600000220870D0B2B0BD0606040602010000D3
:101B700040F200404FF40061C5F6020001F064B984
:101B8000704700000000000010B501F079F940F244
:101B9000C804C2F200046168401AC0087C2809D950
:101BA00001F06EF960606078A07001206070012023
:101BB000207010BD6078013060700120207010BD71
:101BC00070B50446006841F641160569C0F6000686
:101BD000690721D4A8072DD4E8063BD4280705D5EA
:101BE000206808214161204600F042F8E80708BF5C
:101BF00070BD20680168890703D5C16821F01E0106
:101C0000C160C16821F00101C1600121416120462C
:101C1000BDE87040FFF7B8BF04214161E06C40F0BF
:101C20000200E06484F83510A06C066500F0B8FA94
:101C3000A807D1D521680222A06C4A61E16C41F06D
:101C40000101E164042184F83510066500F0A8FA6A
:101C5000E806C3D5206810214161204600F004F851
:101C60002807BDD4C2E70000704700000000000054
:101C700070470000000000002DE9F041044601F02B
:101C8000FFF81CB3054694F83500022822D140F233
:101C90000F472668C4F2020740F26F48BE426FF059
:101CA0000E00C4F202081DDC6F21C4F202018E4254
:101CB0002ADC3F21C4F202018E4241DC1021C4F231
:101CC00002018E4263D028215CE000BF0120BDE804
:101CD000F08100BF80206065002084F8340001207E
:101CE000BDE8F08146451BDC40F23F41C4F20201F1
:101CF0008E422DDC40F21041C4F202018E4246D0E9
:101D000040F228413EE000BF9F21C4F202018E4212
:101D100028DC7021C4F202018E4238D0882131E0E3
:101D200040F29F41C4F202018E4223DC40F2704136
:101D3000C4F202018E422AD040F2884122E000BF64
:101D40004021C4F202018E4221D058211AE000BF86
:101D500040F24041C4F202018E4218D040F2584194
:101D600010E000BFA021C4F202018E420FD0B821C2
:101D700008E000BF40F2B841C4F202018E4206D032
:101D800040F2A041C4F202018E42314607D13146F1
:101D9000306820F01E0041F8140B6FF080000A68D4
:101DA000464500EA020008601ADC9F20C4F20200E7
:101DB000864233DC5720C4F2020086425ADC1020EF
:101DC000C4F20200864200F097802820C4F202008C
:101DD000864200F091804020C4F202008AE000BFF9
:101DE00045F22F40C5F6020086422DDC40F2B74096
:101DF000C4F2020086424BDC40F27040C4F20200A2
:101E0000864279D040F28840C4F20200864273D004
:101E100040F2A040C4F202006CE000BF40F2274054
:101E2000C4F20200864243DCA020C4F202008642D3
:101E300062D0B820C4F2020086425DD040F2104069
:101E4000C4F2020056E000BF45F26B40C5F6020046
:101E500086423FDC45F23040C5F6020086424BD058
:101E600045F24440C5F60200864245D045F258404E
:101E70003EE000BF5820C4F2020086423CD07020F1
:101E8000C4F20200864237D08820C4F2020031E05A
:101E900040F2B840C4F2020086422DD045F208401C
:101EA000C5F60200864227D045F21C4020E000BF64
:101EB00040F22840C4F2020086421DD040F2404069
:101EC000C4F20200864217D040F25840C4F2020029
:101ED00010E000BF45F26C40C5F6020086420BD010
:101EE00045F29440C5F60200864205D045F2804096
:101EF000C5F60200864204D1206E016821F480718B
:101F00000160306820F00100306000BF3068C00719
:101F100010D000F0B5FF401B0628F7D320206065E5
:101F2000002084F83400032084F835000120BDE847
:101F3000F08100BF20680821B8424FF03F0211DC59
:101F40006F23C4F2020398421EDC3F23C4F2020353
:101F5000984235DC1023C4F20203984257D028235C
:101F600050E000BF40451BDC40F23F43C4F2020397
:101F700098422DDC40F21043C4F20203984246D04E
:101F800040F228433EE000BF9F23C4F20203984280
:101F900028DC7023C4F20203984238D0882331E051
:101FA00040F29F43C4F20203984223DC40F27043A4
:101FB000C4F2020398422AD040F2884322E000BFD4
:101FC0004023C4F20203984221D058231AE000BFF4
:101FD00040F24043C4F20203984218D040F2584302
:101FE00010E000BFA023C4F2020398420FD0B82330
:101FF00008E000BF40F2A043C4F20203984206D0BA
:1020000040F2B843C4F20203984240F0C380D4E9DE
:10201000163707F01F07404502FA07F25A5019DC3D
:102020009F21C4F20201884232DC5721C4F202012E
:10203000884259DC1021C4F20201884200F09680E7
:102040002821C4F20201884200F090804021C4F2AD
:10205000020189E045F22F41C5F6020188422DDCDC
:1020600040F2B741C4F2020188424BDC40F27041B9
:10207000C4F20201884279D040F28841C4F20201E0
:10208000884273D040F2A041C4F202016CE000BF6C
:1020900040F22741C4F20201884243DCA021C4F28D
:1020A0000201884262D0B821C4F2020188425DD0A8
:1020B00040F21041C4F2020156E000BF45F26B410C
:1020C000C5F6020188423FDC45F23041C5F6020107
:1020D00088424BD045F24441C5F60201884245D0C2
:1020E00045F258413EE000BF5821C4F20201884247
:1020F0003CD07021C4F20201884237D08821C4F25A
:10210000020131E040F2B841C4F2020188422DD010
:1021100045F20841C5F60201884227D045F21C412C
:1021200020E000BF40F22841C4F2020188421DD0E5
:1021300040F24041C4F20201884217D040F25841B7
:10214000C4F2020110E000BF45F26C41C5F6020185
:1021500088420BD045F29441C5F60201884205D071
:1021600045F28041C5F6020188420BD1616EA26E34
:10217000E06E4A6030B1016821F480710160D4E9F9
:102180001C014160002084F83400012184F83510DE
:10219000BDE8F0810421012239E7000000000000C1
:1021A000F0B190F83510022918D180B540F20F42F5
:1021B0000168C4F20202914214DC6F23C4F20203EC
:1021C000994225DC3F23C4F2020399423CDC1023F0
:1021D000C4F2020399425DD0282357E08021416573
:1021E0000120704740F26F43C4F2020399421BDCA6
:1021F00040F23F43C4F2020399422DDC40F2104307
:10220000C4F20203994245D040F228433EE000BFA9
:102210009F23C4F20203994228DC7023C4F2020314
:10222000994237D0882331E040F29F43C4F2020341
:10223000994223DC40F27043C4F20203994229D050
:1022400040F2884322E000BF4023C4F202039942D7
:1022500020D058231AE000BF40F24043C4F20203EA
:10226000994217D040F2584310E000BFA023C4F2B7
:10227000020399420ED0B82308E000BF40F2B843F1
:10228000C4F20203994205D040F2A043C4F2020313
:10229000994275D191424FF0040280F8352011DC4B
:1022A0006F20C4F20200814222DC3F20C4F202000F
:1022B000814239DC1020C4F20200814259D028202A
:1022C00054E000BF40F26F40C4F2020081421BDCC8
:1022D00040F23F40C4F2020081422DDC40F2104047
:1022E000C4F20200814244D040F228403EE000BFE8
:1022F0009F20C4F20200814228DC7020C4F2020058
:10230000814236D0882031E040F29F40C4F2020082
:10231000814223DC40F27040C4F20200814228D0A6
:1023200040F2884022E000BF4020C4F20200814217
:102330001FD058201AE000BF40F24040C4F2020013
:10234000814216D040F2584010E000BFA020C4F2F5
:10235000020081420DD0B82008E000BF40F2B84032
:10236000C4F20200814204D040F2A040C4F2020054
:102370008142086820F001000860002080BD00BF95
:102380000A6822F00E020A6045F25742C5F60202C0
:1023900091420A6822F001020A600FDC45F22F42E6
:1023A000C5F60202914219DC45F20842C5F6020266
:1023B000914229D045F21C4222E000BF45F27F4203
:1023C000C5F60202914213DC45F25842C5F60202FC
:1023D000914219D045F26C4212E000BF45F2304202
:1023E000C5F6020291420FD045F2444208E000BF18
:1023F00045F29442C5F60202914205D045F2804270
:10240000C5F6020291421AD1D0E9181CD0E916E3B0
:102410000A6822F480720A6003F01F01012202FAA6
:1024200001F1CEF80410816ECCF80410C16E31B108
:102430000A6822F480720A60D0E91C124A60002106
:1024400080F83410012180F83510016D002994D0F6
:102450008847002080BD00002DE9F04782B00021B0
:10246000019140F2500148F2B513C2F20001C1F6E9
:102470004E33856D40F26F490A680168C4F2020963
:102480002E68A2FB032849452A6815DC9F22C4F266
:10249000020291422CDC5722C4F20202914251DC2A
:1024A0001022C4F2020291427BD02822C4F202021E
:1024B000914276D040226FE045F22F43C5F60203E9
:1024C000994229DC40F2B743C4F20203994245DC49
:1024D00040F27042C4F20202914262D040F288425D
:1024E000C4F2020291425CD040F2A04254E000BF2C
:1024F00040F22742C4F2020291423FDCA022C4F221
:10250000020291424DD0B822C4F20202914248D058
:1025100040F2104240E000BF45F26B43C5F60203B3
:10252000994275DC45F23043C5F60203994200F04A
:10253000828045F24443C5F6020399427BD045F2BE
:10254000584373E05822C4F20202914229D070220B
:10255000C4F20202914224D088221DE040F2B84326
:10256000C4F2020399421CD045F20843C5F60203A7
:10257000994260D045F21C4358E000BF40F2284227
:10258000C4F2020291420CD040F24042C4F2020274
:10259000914206D040F25842C4F20202914240F009
:1025A0004783C26D082302F01F0240F20F4A934096
:1025B000C4F2020A334200F0D68051454FF00404C1
:1025C00012DC6F27C4F20207B94265DC3F27C4F270
:1025D0000207B94200F394801027C4F20207B942FF
:1025E00000F0B5802827ADE0494561DC40F23F4767
:1025F000C4F20207B94200F38B8040F21047C4F2E4
:102600000207B94200F0A38040F228479AE000BFD9
:1026100045F26C43C5F6020399420CD045F2804363
:10262000C5F60203994206D045F29443C5F602036B
:10263000994240F0FD820B68C76D07F01F07042622
:10264000BE40164218BF13F004041BD10226BE4040
:10265000164218BF13F002043AD1FA40120740F1B3
:10266000E78213F0080200F0E3820A6822F00E020B
:102670000A60012101FA07F26A604165002280F8D0
:102680003420CDE21A046E6034D49A0636D40A6837
:1026900022F004020A6031E09F27C4F20207B94227
:1026A00040DC7027C4F20207B94250D0882749E0C5
:1026B00040F29F47C4F20207B9423BDC40F2704748
:1026C000C4F20207B94242D040F288473AE000BF64
:1026D0001A046E6000F1B0829A0600F1B1820A68B5
:1026E00022F00A020A60002180F83410012180F8EB
:1026F0003510A5E2D90301D4816C94E2016C92E219
:102700004027C4F20207B94221D058271AE000BF7F
:1027100040F24047C4F20207B94218D040F258478D
:1027200010E000BFA027C4F20207B9420FD0B827BB
:1027300008E000BF40F2A047C4F20207B94206D049
:1027400040F2B847C4F20207B94218BF08240F6824
:10275000274208D00F6827F004070F60AB60436D75
:1027600043F0010343650123934033426FD0514549
:1027700010DC6F27C4F20207B9421DDC3F27C4F208
:102780000207B94234DC1027C4F20207B94256D01E
:1027900028274FE049451BDC40F23F47C4F20207BF
:1027A000B9422DDC40F21047C4F20207B94246D0CC
:1027B00040F228473EE000BF9F27C4F20207B9421B
:1027C00028DC7027C4F20207B94238D0882731E0EC
:1027D00040F29F47C4F20207B94223DC40F270473F
:1027E000C4F20207B9422AD040F2884722E000BF73
:1027F0004027C4F20207B94221D058271AE000BF8F
:1028000040F24047C4F20207B94218D040F258479C
:1028100010E000BFA027C4F20207B9420FD0B827CA
:1028200008E000BF40F2A047C4F20207B94206D058
:1028300040F2B847C4F20207B94240F003824F6940
:102840003F0604D5AB60436D43F0020343650423A8
:10285000934033426FD0514510DC6F27C4F202071A
:10286000B9421DDC3F27C4F20207B94234DC10270D
:10287000C4F20207B94256D028274FE049451BDC75
:1028800040F23F47C4F20207B9422DDC40F2104744
:10289000C4F20207B94246D040F228473EE000BFEA
:1028A0009F27C4F20207B94228DC7027C4F202074E
:1028B000B94238D0882731E040F29F47C4F202077E
:1028C000B94223DC40F27047C4F20207B9422AD071
:1028D00040F2884722E000BF4027C4F20207B94215
:1028E00021D058271AE000BF40F24047C4F2020747
:1028F000B94218D040F2584710E000BFA027C4F2F8
:102900000207B9420FD0B82708E000BF40F2A04745
:10291000C4F20207B94206D040F2B847C4F2020737
:10292000B94240F097810F68BF0704D5AB60436D93
:1029300043F004034365102303FA02F2324200F02D
:10294000828051454FF0080310DC6F27C4F2020764
:10295000B9421DDC3F27C4F20207B94234DC10271C
:10296000C4F20207B94256D028274FE049451BDC84
:1029700040F23F47C4F20207B9422DDC40F2104753
:10298000C4F20207B94246D040F228473EE000BFF9
:102990009F27C4F20207B94228DC7027C4F202075D
:1029A000B94238D0882731E040F29F47C4F202078D
:1029B000B94223DC40F27047C4F20207B9422AD080
:1029C00040F2884722E000BF4027C4F20207B94224
:1029D00021D058271AE000BF40F24047C4F2020756
:1029E000B94218D040F2584710E000BFA027C4F207
:1029F0000207B9420FD0B82708E000BF40F2A04755
:102A0000C4F20207B94206D040F2B847C4F2020746
:102A1000B94218BF04230F681F4214D0AA600A6885
:102A200052030A6808D4D20508D40A6822F00802C2
:102A30000A60016C21B906E0110351D4016C11B197
:102A4000044688472046C16D01F01F02202101FA8B
:102A500002F3334200F0AB8001681027514511DCCE
:102A60006F26C4F20206B1421EDC3F26C4F2020603
:102A7000B14239DC1026C4F20206B1425BD02826EE
:102A800054E000BF49451BDC40F23F46C4F2020659
:102A9000B14231DC40F21046C4F20206B1424AD0E3
:102AA00040F2284642E000BF9F26C4F20206B1422F
:102AB0002CDC7026C4F20206B1423CD0882635E0F8
:102AC00040F29F46C4F20206B14227DC40F2704653
:102AD000C4F20206B1422ED040F2884626E000BF82
:102AE000816C0029ACD1AEE74026C4F20206B142A7
:102AF00021D058261AE000BF40F24046C4F2020638
:102B0000B14218D040F2584610E000BFA026C4F2EF
:102B10000206B1420FD0B82608E000BF40F2A0463E
:102B2000C4F20206B14206D040F2B846C4F2020630
:102B3000B14218BF02270E683E4238D0AB6090F811
:102B40003530042B0B6819D123F016030B604B6949
:102B500023F080034B61036C0BB9836C1BB10B68D2
:102B600023F008030B603F219140A960002180F809
:102B70003410012180F83510016D54E05A030A68C1
:102B80000CD4D2050ED40A6822F010020A6000218B
:102B900080F83410012180F8351003E0110301D4CE
:102BA000416C00E0C16B11B1044688472046416D7D
:102BB00000293DD0416DC90734D0042180F835107B
:102BC00001684FEA98220B6823F001030B60019B18
:102BD0000133019393421AD80B68DB0717D0019B8E
:102BE00001330193934212D80B68DB070FD0019B8E
:102BF0000133019393420AD80B68DB0707D0019B8E
:102C000001330193934202D80B68DB07DFD1002226
:102C100080F834200968C9074FF0030108BF01217B
:102C200080F83510C16C19B102B0BDE8F047084713
:102C300002B0BDE8F08700BFD90301D4416CF2E7D0
:102C4000C16BF0E70B680423934033427FF403AE7B
:102C500071E600BF0B686EE6B0B5044600F010F9EF
:102C600040F248010546C2F20001621C097818BF13
:102C70000C4400BF00F004F9401BA042FAD3B0BDE1
:102C80002DE9F04F83B00F68002F00F0D98000F1DC
:102C900026420A2302F1FF7642F20042C5F6020202
:102CA0004FEAB625904200F1200208BF09230192A5
:102CB000092D38BF4FEAB62300244FF0010E00263D
:102CC0004FF0000800930AE008F101080F6837FA96
:102CD00008F206F1020604F1040400F0B1800EFAD5
:102CE00008FC17EA0C09EFD0D1F804A0BAF1120FD2
:102CF00000F29E800EFA0AF717F0061F00F0988087
:102D00000322876802FA06FECA6827EA0E05B24067
:102D10002A43826042684FEA1A154FEA480B6FEA6D
:102D20000E0E22EA0C0205FA08F52A4342604AF028
:102D30001005C268122D8D6802EA0E0205FA0BF525
:102D400042EA0502C26014D16FF00302019D02EA5B
:102D5000580204F01C030F2755F802C09F40D1F819
:102D600010A02CEA07070AFA03F33B43AB50D1F853
:102D700004A00AF00302036802FA0BF203EA0E034E
:102D80005FEACA074FF0010E42EA030202609BD5D8
:102D900044F2F44340F2084CC5F60203C5F6000CB9
:102DA0000F254FF0B04A1A6842F002021A601A6802
:102DB00002F00202029228F00302029B04F00C03CC
:102DC00052F80C709D40AF43009D05FA03F33B435E
:102DD00042F80C3040F2040CC5F6000CDCF87C2004
:102DE0004B6842EA0907DD0358BF22EA09079D0341
:102DF000CCF87C70DCF8802042EA090758BF22EA50
:102E00000907DD02CCF88070DAF8002042EA0907F1
:102E100058BF22EA09079B02CAF80070DCF80020BC
:102E200042EA090758BF22EA0907CCF800704BE7CD
:102E30000322B34602FA06F76FEA070E77E700BFF0
:102E400003B0BDE8F08F00000069084018BF012002
:102E50007047000000000000426951404161704726
:102E600012B10183704700BF41837047000000002A
:102E700041F20000C5F600400068000C70470000F9
:102E800044F64400C2F200000068704700000000F1
:102E90002DE9F04F83B0044690F84100202807D177
:102EA0000C9F4FB10D9D3DB194F8400001280BD10E
:102EB000022003B0BDE8F08F4FF400706064012081
:102EC00003B0BDE8F08F00BF8B46924699460120C3
:102ED00084F84000FFF7D4FF216806468969090499
:102EE0000AD500BFFFF7CCFF801B192800F2E08055
:102EF000206880690004F5D4222084F84100402035
:102F000084F842002046594652464B464FF000088E
:102F1000C4F84480676265850E9DC4F83480CDE9AD
:102F2000005603F0FDFE28B184F84080012003B074
:102F3000BDE8F08F618D42F2004C49F60002C8F204
:102F4000FF1CC7F60042B1F5807F6FF39F2B09D3BA
:102F500021684B681A4042EA0B0242EA0C004860C2
:102F6000FF210CE0618D2368C8B25F683A4042EAF5
:102F700000400CF5803240EA0B001043586049F6DF
:102F8000004940F20008CFF600496F1C4FF0FF0ADD
:102F9000C0F2FF18218511E0618D2185C9B250F87A
:102FA000042F02EA090242EA01414FF0007241EAAD
:102FB0000B0111430160608D00285BD0206881699E
:102FC00049070CD4D7B3002D70D000BFFFF758FFCE
:102FD000801BA8426CD8206881694907F6D5406AF1
:102FE000616A0870218D606A01306062481E208528
:102FF000618D01396185618D0029DCD00004DAD151
:103000002068816909060CD437B3002D4ED000BF6B
:10301000FFF736FF801BA8424AD82068816909065D
:10302000F6D5618DB1F5807FB6D3A4F828A04246CD
:1030300050F8041F01EA0901B9E700BF8169490797
:10304000CDD4816949075CBF81695FEA4171C6D40B
:1030500081694907F2D5C2E781690906E1D481692E
:1030600009065CBF81695FEA0161DAD481690906FA
:10307000F2D5D6E720462946324603F0BDFE0028A9
:103080007FF41DAF206820214EF60003C161CFF60A
:10309000006342681A40426084F84110002084F8BE
:1030A000420084F8400003B0BDE8F08FFFF7E8FE6F
:1030B000606C40F020006064202084F84100002013
:1030C00084F8420084F84000012003B0BDE8F08F8E
:1030D00040F2480044F64401C2F20000C2F200018E
:1030E00000780A6810440860704700000000000083
:1030F00080B5032000F0FCF801F022FE44F21841F4
:103100004CF67C53C5F60201C0F600030A68C2F310
:1031100003229A5C096801F00F0102F01F02595C5A
:10312000D04040F25402C2F2000201F01F0120FA26
:1031300001F1116040F25001C2F2000108600F205D
:1031400000F00AF800281CBF012080BD00F07CF8C8
:10315000002080BD00000000B0B540F24805C2F27A
:1031600000052978F1B1044640F25000C2F2000097
:103170004FF47A72B2FBF1F10068B0FBF1F002F0AB
:1031800087FB0F2C01464FF001000AD8002918BF19
:10319000B0BD4FF0FF300022214600F079F800204A
:1031A0006C60B0BD0120B0BDB0B502784EF69C5C3D
:1031B000CEF2000C43784CF8043CFAB14368CCF8EA
:1031C0000030037BC17A90F80AE0457B447A42EAFA
:1031D0000372837B42EA0161C27B41EACE41007AFD
:1031E00041EA854141EA434141EA024141EA042181
:1031F00041EA4000CCF80400B0BD00BF0020CCF88C
:103200000000CCF80400B0BD4EF62450CEF2000011
:10321000BFF35F8F016821F48031016000210167F5
:1032200070470000000000004EF6245140F00100FD
:10323000CEF200010867086840F480300860BFF3F0
:103240004F8FBFF36F8F704781B044F2F440C5F6E3
:103250000200016841F002010160006800F0020014
:103260000090009801B07047002848BF704700F0F8
:103270001F01012202FA01F14EF20012C0F34A10BE
:10328000CEF2000242F8201070470000000000005B
:1032900070B54EF60C5C4FF0FF36CEF2000C00F12C
:1032A000604505F56445DCF80030C3F3022E8EF06E
:1032B0000703042B28BF0423BEF1030406FA03F31B
:1032C00021EA030100F00F0338BF0024043B00286B
:1032D000634406FA04F048BF03F10C05A14022EA5A
:1032E000000008430001287070BD000000000000CD
:1032F0004EF60C514FF6FF03CEF200010A681A4059
:1033000060F30A2242F0806040F0FD700860704770
:10331000B0B544F60C05C5F60205296849072968C9
:1033200006D401F00701081A18BF0120B0BD00BF84
:1033300021F0070108432860FFF7A2FD044600BF03
:1033400055F8080C800407D4FFF79AFD001BB0F570
:103350007A7FF5D90120B0BD0020B0BD000000008B
:103360002DE9F0411D46174688460446FFF788FDC3
:1033700094F84010012903D10220BDE8F08100BF7C
:103380000646012084F8400094F84100012847D106
:1033900000206064422084F841002068816889062A
:1033A00044D497E80E1081624262C36201683A69B0
:1033B00021F4400111434FF0006241F480010160AB
:1033C00020464146C8F828C004F0B6FC2068816851
:1033D000090710D4002D45D0691C1BD1816809074D
:1033E00009D4816809075CBF81685FEA017102D472
:1033F00081680907F2D50821C160012084F84100E5
:103400000020002184F84010BDE8F0812068816828
:103410000907F0D4FFF734FD801BA842F6D923E05A
:103420000220002184F84010BDE8F081D5B1691C6C
:1034300012D181688906B4D58168890644BF816844
:103440005FEA8161ADD581688906F2D4A9E700BF42
:10345000206881688906A4D5FFF712FD801BA84269
:10346000F6D901E0FFF70CFD042084F84100606C00
:1034700040F0010060640120002184F84010BDE8A4
:10348000F081000000000000F0B581B015460F4645
:103490000446FFF7F5FC94F84010012902D1022000
:1034A00001B0F0BD0646012084F8400094F84100C8
:1034B00001284FF0020029D10021616484F8410005
:1034C00020688168890631D400222046394604F0FC
:1034D00033FC786AB0B920688168890710D4002D60
:1034E00040D0691C1CD18168890709D4816889078B
:1034F0005CBF81685FEA817102D481688907F2D577
:103500000221C160012084F841000020002184F8DC
:10351000401001B0F0BD00BF206881688907EFD47A
:10352000FFF7AEFC801BA842F6D91DE0D5B1691C9F
:1035300012D181688906C7D58168890644BF816830
:103540005FEA8161C0D581688906F2D4BCE700BF1B
:10355000206880688006B7D5FFF792FC801BA842E0
:10356000F6D901E0FFF78CFC042084F84100606C80
:1035700040F0010060640120002184F8401001B097
:10358000F0BD00000000000070B110B501680446F5
:103590000A6822F001020A6000F07AF800206064F4
:1035A00084F8410010BD00BF0120704700000000FA
:1035B00070B50446FFF764FC002C66D0054694F80D
:1035C000410028B9204600F067F841F28830A06435
:1035D00020686FF0FF03A168A66C026822F4706295
:1035E00003EB0121114301608168890628D44FF65D
:1035F0002F720168C0F2FF0263681140E668314330
:103600002669D4E9072541EA0361636911434FF64E
:10361000FE02294301604168CFF6E0721140A269C1
:10362000194341EA064111434160016841F001013B
:10363000016000206064012184F8411070BD00BF6A
:10364000D6B1711C12D181688906D0D581688906EE
:1036500044BF81685FEA8161C9D581688906F2D477
:10366000C5E700BF206881688906C0D5FFF708FC60
:10367000401BB042F6D901E0FFF702FC042084F8B9
:103680004100606C40F001006064012070BD0000EA
:1036900070470000000000002DE9F04186B045F2BF
:1036A00000020068C5F20022002190420591CDE998
:1036B00003110291019103D006B0BDE8F08100BF73
:1036C00044F2E04040F60044C5F60200C5F60204AC
:1036D000A4F5006601AD50F80C2C4FF0040842F43C
:1036E000804240F80C2C50F80C2C092702F4804240
:1036F0000092009A50F8642C42F4804240F8642C06
:1037000050F8642C22F4804240F8642C026842F0A5
:1037100002020260026802F002020092009A02684D
:1037200042F002020260026802F002020092009A75
:10373000026842F008020260026802F00802009289
:10374000009A026842F008020260026802F0080271
:103750000092009A026842F010020260026802F0D1
:1037600010020092009A026842F0080202600068AB
:1037700000F00800009000980220CDE9020103202B
:10378000049030462946CDF804800597FFF778FA73
:10379000402001900A20059030462946FFF770FA34
:1037A0004FF400600190204629460597FFF768FA1C
:1037B0004FF480500190204629460597FFF760FAA4
:1037C00004F580602946CDF804800597FFF758FA84
:1037D0004FF400500190204629460597FFF750FA14
:1037E00006B0BDE8F08100002DE9F04115460F4616
:1037F0000446FFF745FB2668B16994F84020012A8A
:1038000002D10220BDE8F0818046012084F840000A
:1038100094F8410001286FD1002F4FF00000606440
:1038200070D0222084F84100306901220130A06369
:103830003069013060632763706962F39B60706177
:10384000B161A06BA8B1681C38D0002D40F0848015
:103850002068806810F0060F5ED096F8200038705F
:10386000206BA16B471C2763481EA063A06B002838
:10387000EED120688168890710D4002D4CD0691CD6
:1038800032D18168890709D4816889075CBF816862
:103890005FEA817102D481688907F2D50221C16093
:1038A000002043E096F820003870206BA16B471C85
:1038B0002763481EA063A06B0028DAD020688168C7
:1038C00011F0060FEED1816811F0060F04BF816878
:1038D00011F0060FE6D1816811F0060FEFD0E1E795
:1038E000206881688907D9D4FFF7CAFAA0EB0800DD
:1038F000A842F5D912E000BF0220002184F8401050
:10390000BDE8F081606C40F0080060640120002197
:1039100084F84010BDE8F081FFF7B2FA042084F883
:103920004100606C40F0010060640120012184F8D6
:103930004110002184F84010BDE8F081276B96F813
:1039400020003870206BA16B471C2763481EA063C2
:10395000A06B00283FF48DAF2068806810F0060F40
:10396000EDD100BFFFF78CFAA0EB0800A842D5D834
:103970002068806810F0060FF4D0DFE70000000038
:103980002DE9F04115460F460446FFF779FA2668FF
:1039900094F84010012903D10220BDE8F08100BF56
:1039A0008046012084F8400094F8410001286BD142
:1039B000002F4FF0000060646CD0122084F84100AA
:1039C00030690130E06230690130A062676270697D
:1039D00020F040607061E06AA0B1681C38D0002D12
:1039E00040F082802068806840075DD5387886F88E
:1039F0002000606AE16A471C6762481EE062E06A74
:103A00000028EFD120688168890710D4002D4BD0A1
:103A1000691C31D18168890709D4816889075CBF35
:103A200081685FEA817102D481688907F2D5022139
:103A3000C160002042E000BF387886F82000606A4C
:103A4000E16A471C6762481EE062E06A0028D9D03C
:103A5000206881684907EFD4816849075CBF8168A5
:103A60005FEA4171E8D481684907F2D5E4E700BF15
:103A7000206881688907DAD4FFF702FAA0EB080012
:103A8000A842F5D912E000BF0220002184F84010BE
:103A9000BDE8F081606C40F0080060640120002106
:103AA00084F84010BDE8F081FFF7EAF9042084F8BB
:103AB0004100606C40F0010060640120012184F845
:103AC0004110002184F84010BDE8F081676A387821
:103AD00086F82000606AE16A471C6762481EE0625F
:103AE000E06A00283FF48EAF206880684007EED47B
:103AF000FFF7C6F9A0EB0800A842D7D82068806875
:103B00004007F5D5E2E7000080B501F091F844F2F6
:103B100020414CF67C52C5F60201C0F6000209684D
:103B2000C1F30211515C01F01F01C84080BD0000CB
:103B300080B544F2384EC5F6020E5EF8103C5EF8D1
:103B4000101C5EF80C2CC1F3053CDEF80410BCF12F
:103B5000000F19D0C9089FED3C1AD20601EAE271A4
:103B600003F003026FF35F3100EE101AB8EE400A63
:103B7000DFE802F0022210225EF8381C89060DD41C
:103B80009FED331A18E000BF00218160C0E90011E9
:103B900080BD00BF9FED2D1A0EE000BF5EF8381CFF
:103BA00049F20002C0F2D032C1F3C10122FA01F1A0
:103BB00001EE101AB8EE411ADEF800109FED253A1A
:103BC0006FF35F2102EE101ADEF80010C1F34621F8
:103BD000B8EE422A013100EE032A00EE10CAB7EE19
:103BE000003AB8EE400A81EE000A32EE031A20EEE7
:103BF000010A01EE101AB8EE411A80EE011ABCEE6D
:103C0000C11A80ED001ADEF80010C1F3064101313F
:103C100001EE101AB8EE411A80EE011ABCEEC11A7C
:103C200080ED011ADEF80010C1F30661013101EEEA
:103C3000101AB8EE411A80EE010ABCEEC00A10EE6E
:103C4000101A816080BD00BF0024744A20BCBE4BA6
:103C50000024744C0000003980B544F2404EC5F693
:103C6000020E5EF8183C5EF8181C5EF8142CC1F3C6
:103C7000055CDEF80410BCF1000F19D0C9089FEDF7
:103C80003C1AD20501EAE27103F003026FF35F31DF
:103C900000EE101AB8EE400ADFE802F0022210220D
:103CA0005EF8401C89060DD49FED331A18E000BF62
:103CB00000218160C0E9001180BD00BF9FED2D1A79
:103CC0000EE000BF5EF8401C49F20002C0F2D032A4
:103CD000C1F3C10122FA01F101EE101AB8EE411A46
:103CE000DEF800109FED253A6FF35F2102EE101A07
:103CF000DEF80010C1F34621B8EE422A013100EE91
:103D0000032A00EE10CAB7EE003AB8EE400A81EE80
:103D1000000A32EE031A20EE010A01EE101AB8EE84
:103D2000411A80EE011ABCEEC11A80ED001ADEF8CD
:103D30000010C1F30641013101EE101AB8EE411A2C
:103D400080EE011ABCEEC11A80ED011ADEF80010F7
:103D5000C1F30661013101EE101AB8EE411A80EE8E
:103D6000010ABCEEC00A10EE101A816080BD00BFCF
:103D70000024744A20BCBE4B0024744C000000395F
:103D80002DE9F0470446C07844F22C480007C5F6F8
:103D900002082DD5606E4FEA305103293ED8DFE886
:103DA00001F0030B172000BFD8F8001041F40031D8
:103DB000C8F8001015E000BF201D022104F0C4FB6C
:103DC000064668B16078C00716D1354653E000BF9B
:103DD00004F12400022104F04BFC06460028F1D136
:103DE000606ED8F8241021F440110843C8F824006C
:103DF00000266078C007E8D0606D042800F2788063
:103E00003546DFE800F01B27110303002F464DB3B2
:103E10006078800740F1718031E000BF0126607852
:103E2000C007D2D0E8E700BF04F12400002104F06D
:103E30001FFC0546002D2F46EAD113E0D8F80000FC
:103E4000354640F40030C8F80000002D2F46DFD181
:103E500008E000BF201D002104F076FB0546002D80
:103E60002F46D5D1D8F82400616D20F00700002539
:103E70000843C8F824003746607880073DD5A06D18
:103E80004FEAB010042800F27980DFE800F0151F37
:103E90000B0303002E460DB36078400740F173809A
:103EA0002FE000BF04F12400002104F0E1FB0546EF
:103EB000002D2E46F0D111E0D8F8000040F400307B
:103EC000C8F80000002D2E46E6D107E0201D002195
:103ED00004F03AFB0546002D2E46DDD1D8F824002B
:103EE000A16D20F4E07000250843C8F8240004E028
:103EF0000125012760788007C1D43E4660784007DD
:103F000041D5D4F8A4004FEA7050042800F2808014
:103F1000DFE800F016200C04040000BFA9460DB332
:103F20006078000740F17A8031E000BF04F124009E
:103F3000002104F09DFB0546002DA946F0D111E0BB
:103F4000D8F8000040F40030C8F80000002DA94661
:103F5000E6D107E0201D002104F0F6FA0546002D09
:103F6000A946DDD1D8F82C00D4F8A41020F46000C4
:103F700000250843C8F82C0005E000BF01250126F4
:103F800060784007BDD4B1466078000746D5D4F8C4
:103F9000A8004FEA3060042800F21281DFE800F048
:103FA0001A241004040000BF2F462DB3E0788007C8
:103FB00038D43E466078C00640F1A98041E000BF99
:103FC00004F12400002104F053FB0546002D2F4688
:103FD000ECD111E0D8F8000040F40030C8F800003F
:103FE000002D2F46E2D107E0201D002104F0ACFA9D
:103FF0000546002D2F46D9D1D8F82C00D4F8A810AA
:1040000020F0E06000250843C8F82C0006E000BF5F
:1040100001254FF0010960780007B8D44F46E078D9
:104020008007C6D5A06C4FEA3010032844D8DFE8DB
:1040300000F003232D0300BF2E467DB36078C00639
:1040400065D5E06D4FEA3030042800F2C180DFE82A
:1040500000F0434D39030300002D2F464ED0607809
:10406000800658D43E466078400667D4374660786C
:10407000000640F1078175E0D8F8000040F40030F8
:10408000C8F80000002D2E46D8D107E0201D0221DF
:1040900004F05AFA0546002D2E46CFD1D8F820005C
:1040A000A16C20F0300000250843C8F820003E46EF
:1040B0006078C0062BD5C4E7012501266078C006CC
:1040C000BFD424E004F12400002104F0D1FA054615
:1040D000002D2F46C3D111E0D8F8000040F4003085
:1040E000C8F80000002D2F46B9D107E0201D00219F
:1040F00004F02AFA0546002D2F46B0D1D8F8240046
:10410000E16D20F4E04000250843C8F8240037465C
:1041100060788006A6D5206E4FEA3040052800F270
:104120007380DFE800F0037F5D030303002D2E465C
:1041300000F08180607840067FF598AFD4F8AC003D
:104140004FEA3070052867D8DFE800F00484540493
:10415000040400BF002D2F4600F085806078000623
:1041600040F19080E06E58B1B0F1005F10D0B0F136
:10417000805F1FD1D8F8000040F40030C8F800007C
:104180002E466DB1E078C00700F093807EE000BF5E
:10419000201D012104F0D8F90546002D2E46F1D14D
:1041A000D8F82400E16E20F0405000250843C8F8FC
:1041B000240067E001250126E078C00766D178E099
:1041C00001250127E07880073FF52CAFF1E600BF1D
:1041D00001250127607880063FF59DAF42E700BFCB
:1041E00004F12400012104F043FA0546002D2E4677
:1041F000A0D120E004F12400012104F039FA0546A1
:10420000002D2F46AAD12EE0012501266078400618
:104210003FF594AF2AE700BF01250127607800062B
:10422000A0D42FE0201D012104F08EF90546002DB9
:104230002E467FF47FAFD8F82400216E20F4E020D2
:1042400000250843C8F824003E46607840067FF504
:104250000DAF73E7201D012104F076F90546002D0E
:104260002F467FF47BAFD8F82C00D4F8AC1020F0A8
:10427000E04000250843C8F82C0037466078000667
:104280003FF570AF3E46E078C00712D0606C03285F
:1042900000F2AC80DFE800F00294A002A9464DB91C
:1042A000D8F82000616C20F0030000250843C8F80E
:1042B0002000B146A078400602D44F461AE000BF65
:1042C000D8F8D40340F48070C8F8D403FEF7D8FDC2
:1042D000064600BFD8F8D403C00507D4FEF7D0FDCA
:1042E000801B6428F6D90325032703E0002D2F4601
:1042F00000F080802078C00700F0D280A06F4FEAE5
:10430000F000052800F2B480DFE800F004B8A6044D
:10431000040400BF002D2E4600F0B98020788007ED
:1043200000F1C38037462078400700F1D3803E4635
:104330002078800600F1E48037462078400600F1BE
:10434000F7803E462078000600F10A813746206853
:10435000010740F11D81D4F88000B0F5805F09D1DC
:1043600004F12400022104F083F9002818BF01277A
:10437000D4F88000D8F8281021F440510843C8F838
:1043800028002068C10640F10681D4F89400B0F5F9
:10439000807F09D104F12400022104F069F900288A
:1043A00018BF0127D4F89400D8F82C1021F44071DC
:1043B0000843C8F82C002068000340F11381ECE0AA
:1043C000D8F8000040F40030C8F80000002DA946DD
:1043D0007FF470AF64E700BF201D022104F0B4F841
:1043E0000546002DA9467FF465AF59E701254FF03A
:1043F00001095FE7D8F84410D4F8B000414011F447
:10440000407F11D0D8F84410D8F8442042F48032CC
:10441000C8F84420D8F8442021F4407122F48032B6
:10442000C8F84420C8F84410B0F5807F40F0B68248
:10443000FEF726FD064641F2883A0325032700BF12
:10444000D8F84400800700F1A782FEF719FD801B11
:104450005045F5D94EE700BF04F12400012104F0D6
:1044600007F90546002D2E467FF458AF0FE000BF38
:10447000012501262078800717D453E7201D01214C
:1044800004F062F80546002D2E467FF447AFD8F8B9
:104490002800A16F20F0380000250843C8F8280044
:1044A0003E46207880077FF53DAF606F052800F21B
:1044B000CB81DFE810F00700F1018D010700070054
:1044C000070000BF002D2F4600F0EF812078400745
:1044D0007FF52DAFD4F89000052800F2BD81DFE80C
:1044E00010F00700F301830107000700070000BF79
:1044F000002D2E4600F0F181207880067FF51CAF5C
:10450000D4F88C004FEA3070052800F2AD81DFE866
:1045100010F00700F501770107000700070000BF52
:10452000002D2F4600F0F381207840067FF509AF7B
:10453000D4F898004FEAB020052800F29D81DFE80A
:1045400010F00700F7016B0107000700070000BF2C
:10455000002D2E4600F0F581207800067FF5F6AE9E
:10456000D4F89C004FEA7030052800F28D81DFE816
:1045700010F00700F9015F0107000700070000BF06
:10458000002D2F4600F0F781206801073FF5E3AECC
:10459000C1063FF5FAAE000324D5D4F8A000B0F56B
:1045A000003F0FD0B0F5803F06D000284AD1201D33
:1045B000002103F0C9FF04E004F12400022104F00B
:1045C00057F805462E461DB1A07840073FD50DE0AF
:1045D000D8F82C00D4F8A01020F44030002508436F
:1045E000C8F82C003E46A078400730D5D4F88400A7
:1045F000B0F5401F0BD0B0F5001F0FD0B0F5801FF5
:1046000070D1D8F8000040F40030C8F800002F4600
:104610006DB1A078C0071ED169E000BF04F124008D
:10462000012104F025F80546002D2F46F1D1D8F8D8
:104630002800D4F8841020F4401000250843C8F85E
:10464000280004E001250126A0784007CED4374693
:10465000A078C0074BD0E06CB0F5803F2AD0D8BB23
:10466000D8F8000040F40030C8F800002E464DB3E2
:10467000206881003FD4810348D4C1025DD4C100C9
:1046800065D481026FD4410078D4B0F1FF3F40F38C
:104690008680000208D5D8F82800D4F8881020F4C5
:1046A00040000843C8F82800002E18BF01263046F5
:1046B000BDE8F087201D022103F046FF0546002DCE
:1046C0002E46D5D1D8F82000E16C20F480300025AA
:1046D0000843C8F820000AE001250126206881006F
:1046E000C9D508E001250127A078C007B3D13E460F
:1046F00020688100BFD504F12400022103F0B8FF37
:10470000002818BF012620688103B6D5E16F6FF03D
:10471000010202EB3122022A0AD34FEA31223AB1D6
:10472000012A07D1D8F8002042F40032C8F800204E
:10473000002D41D00126C102A1D5D8F82410226F46
:1047400021F000411143C8F82410C10099D558F850
:104750001C1CD4F8B42021F48041114348F81C1CDF
:1047600081027FF590AFD8F82410A26E21F08071FD
:104770001143C8F8241041007FF587AF58F81C1C7E
:1047800021F4004148F81C1CD4F8B81058F81C2C2F
:10479000114348F81C1CB0F1FF3F3FF77AAFD8F83F
:1047A0002010226D21F040511143C8F82010000262
:1047B0003FF571AF78E700BFD8F8282022F44072A7
:1047C0001143C8F82810C1027FF559AFB5E700BF03
:1047D00004F12400012103F04BFF0546002D2F4674
:1047E0007FF474AE61E000BF04F12400012103F006
:1047F0003FFF0546002D2E467FF47EAE6DE000BFE4
:1048000004F12400022103F033FF0546002D2F465A
:104810007FF48AAE7BE000BF04F12400022103F0A4
:1048200027FF0546002D2E467FF496AE89E000BF97
:1048300004F12400022103F01BFF0546002D2F4642
:104840007FF4A2AE97E000BF012501272078400742
:104850003FF540AE6BE500BF0125012620788006BC
:104860003FF54EAE68E500BF0125012720784006E0
:104870003FF55EAE65E500BF012501262078000604
:104880003FF56EAE62E500BF0125012720680107F4
:104890007FF57EAE5FE500BF201D012103F054FED1
:1048A0000546002D2F467FF411AED8F82800616F21
:1048B00020F0070000250843C8F828003746207874
:1048C00040077FF534AD05E6201D012103F03CFED5
:1048D0000546002D2E467FF40FAED8F82C00D4F8F4
:1048E000901020F0070000250843C8F82C003E4631
:1048F000207880067FF520AD02E600BF201D002154
:1049000003F022FE0546002D2F467FF40DAED8F8A9
:104910002800D4F88C1020F0E04000250843C8F8A7
:1049200028003746207840067FF50BAD00E600BF33
:10493000201D002103F008FE0546002D2E467FF4C1
:104940000BAED8F82C00D4F8981020F4E0500025D5
:104950000843C8F82C003E46207800067FF5F6ACE8
:10496000FEE500BF201D002103F0EEFD0546002DF1
:104970002F467FF409AED8F82C00D4F89C1020F410
:10498000604000250843C8F82C003746206801071E
:104990007FF5FEADDFE400BFD4F8B0004FF6CF7373
:1049A00058F81C2CC0F2FF0300F4407122F47C5232
:1049B00003EA10136FF31F30B1F5407F08BF1A43AD
:1049C000002548F81C2CD8F844100843C8F84400C7
:1049D000FFF773BC000000002DE9F04381B0002810
:1049E00000F0208142F200090446C5F20029D9F8FE
:1049F000000000F00F0081420DD9D9F8000020F02E
:104A00000F000843C9F80000D9F8000000F00F00BB
:104A1000884240F00781206844F218464207C5F6F4
:104A200002060AD52269336803F070039A4204D95A
:104A3000336823F070031A43326002070AD56269B3
:104A4000736803F070039A4204D9736823F070030B
:104A50001A437260C2060AD5A269736803F4E06360
:104A60009A4204D9736823F4E0631A4372608206A1
:104A70000AD5E269B36803F070039A4204D9B368B7
:104A800023F070031A43B26010F002020AD0E36808
:104A9000376807F00F07BB4204D9376827F00F07C4
:104AA0003B433360C3073FD0306820F47062D4E9E1
:104AB00001031A433260012856F8182C0AD0032843
:104AC00004D002280AD192030BD4ABE0920108D49F
:104AD000A8E000BFD20504D4A4E000BF520740F113
:104AE000A180884656F8081C21F00701084346F8C3
:104AF000080CFEF7C5F9054641F2883756F8080C50
:104B0000616800F03800B0EBC10F09D0FEF7B8F9CA
:104B1000401BB842F2D9032001B0BDE8F08300BFCA
:104B20002068414600F0020252B1E268336803F0A7
:104B30000F039A4204D2336823F00F031A43326002
:104B4000D9F8002002F00F0291420CD2D9F80020CF
:104B500022F00F020A43C9F80020D9F8002002F021
:104B60000F028A425ED141070AD52169326802F0FC
:104B70007002914204D2326822F070021143316017
:104B800001070AD56169726802F07002914204D28D
:104B9000726822F0700211437160C1060AD5A169E2
:104BA000726802F4E062914204D2726822F4E06218
:104BB0001143716080060AD5E069B16801F07001A7
:104BC000884204D2B16821F070010843B06000F05F
:104BD000B7F831684CF67C52C0F60002C1F30321ED
:104BE000515C336803F00F0301F01F01D25C20FA1F
:104BF00001F102F01F0040F25402C2F2000221FA59
:104C000000F0106040F24C0040F25002C2F200008E
:104C1000C2F200020068116001B0BDE8F043FEF787
:104C20009BBA00BF012001B0BDE8F0830000000086
:104C300080B500F085F844F218414CF67C53C5F677
:104C40000201C0F600030A68C2F303229A5C0968F5
:104C500001F00F0102F01F02595C20FA02F201F08C
:104C60001F0040F25401C2F2000122FA00F0086075
:104C700040F25001C2F200010A6080BD0000000055
:104C800080B500F05DF844F2184C4CF67C53C5F644
:104C9000020CC0F60003DCF80020C2F303229A5C89
:104CA000DCF8001001F00F0102F01F02595CD04047
:104CB00040F25402C2F2000201F01F0120FA01F199
:104CC000116040F25002C2F200021060DCF80400F1
:104CD000C0F30210185C00F01F0021FA00F080BD44
:104CE00080B500F02DF844F2184C4CF67C53C5F614
:104CF000020CC0F60003DCF80020C2F303229A5C29
:104D0000DCF8001001F00F0102F01F02595CD040E6
:104D100040F25402C2F2000201F01F0120FA01F138
:104D2000116040F25002C2F200021060DCF8040090
:104D3000C0F30220185C00F01F0021FA00F080BDD3
:104D400044F20041C5F602010869C0F3C20003281D
:104D500016D002280ED0002832D10868800649F209
:104D60000000C0F2D03058BF70470968C1F3C101DC
:104D7000C840704747F64000C0F27D10704700BF42
:104D80008B6A886AD1F82CC04A6BC0F30510E8B171
:104D9000C2F3CC0203F0030300EE102A9FED2A1A9F
:104DA000B8EE400A20EE010A9FED281ADFE803F072
:104DB000022110210A6892060ED49FED261A18E0EF
:104DC00040F60010C0F23D00704700BF0020704761
:104DD0009FED1F1A0DE000BF0A6849F20003C0F200
:104DE000D033C2F3C10223FA02F201EE102AB8EE68
:104DF000411A0A6B9FED183A6FF35F2202EE102AF8
:104E00005FEACC7203FE000A03EE100A086BB8EEEC
:104E1000422AC0F34620B8EE433A013030EE020A8F
:104E2000B7EE002A81EE031A30EE020A21EE000AE4
:104E300001EE100AB8EE411A80EE010ABCEEC00A7B
:104E400010EE100A704700BF000000390024744AB9
:104E500020BCBE4B0024744C000000000000000089
:104E600070B3F0B581B00446007844F20046C00744
:104E7000C5F6020626D12078800740F1AC80306963
:104E800010F03801B06A3FD0182908BF5FEA80707F
:104E90003AD0E0683168002854D021F01901084365
:104EA0003060FDF7EDFF05463068400733D4FDF76D
:104EB000E7FF401B0228F7D9032001B0F0BD00BF77
:104EC00001207047306900F03801B06A102905D020
:104ED00018290BD100F00300022807D130688003A5
:104EE000C9D560680028C6D134E100BF6168306868
:104EF000002941D0B1F5A02F36D0B1F5803F51D176
:104F000040F4803054E000BF3068400703D5E068CB
:104F1000002800F01F81FDF7ABFF41F2030188423A
:104F200008D820697168402821F47C3150D141F4BF
:104F300000304FE07068216920F0FE4040EA0160D7
:104F400048E000BF21F001003060FDF799FF054601
:104F5000306840073FD5FDF793FF401B02284FF014
:104F60000300F5D901B0F0BD40F480203060306816
:104F700040F480301CE000BF20F4803030603068A6
:104F800020F480203060FDF77BFF05463068800309
:104F90007FF571AFFDF774FF401B64284FF00300ED
:104FA000F4D9DFE720F480303060306820F48020CE
:104FB0003060FDF765FF0546306880033FF55BAF65
:104FC000FDF75EFF401B6428F6D9032001B0F0BD59
:104FD00041EA003070602078C00654D5306900F096
:104FE0003801B06A082905D0182919D100F003004A
:104FF000012815D13068C00503D5E069802840F04C
:10500000A980FDF735FF41F2030188421ED8206ACE
:105010007168202821F0F84132D141F0804031E020
:10502000E0690028306819D040F080003060FDF75A
:1050300027FF05463068C005E3D4FDF721FF401B7C
:105040000228F7D9032001B0F0BD00BFF068216A43
:1050500020F07C5040EA0160F06014E020F0800015
:105060003060FDF70DFF05463068C0050BD5FDF734
:1050700007FF401B02284FF00300F5D972E700BF7D
:1050800041EA806070602078000737D4207880067D
:105090004AD42078400761D4656A65B3306900F06E
:1050A0003800182840F0A080012DB16A306B51D033
:1050B00001F00302A36A9A424CD1C1F30511E26ADE
:1050C000914247D10146226B6FF35F21013A914231
:1050D00040D1C0F34622616B01398A423AD1C0F314
:1050E0000642A16B01398A4234D1C0F30660E16BFC
:1050F000013988422ED1002001B0F0BD606900283E
:10510000706F41D040F001007067FDF7B9FE0546B1
:10511000706F8007BAD4FDF7B3FE401B0228F7D9A1
:10512000032001B0F0BD00BFA0690028306849D05D
:1051300040F480503060FDF7A3FE054630688004DF
:10514000A7D4FDF79DFE401B0228F7D9032001B02C
:10515000F0BD00BF012001B0F0BD00BFD6F80004D3
:1051600040F48070C6F80004FDF78AFE054600BFD3
:10517000D6F80004C00519D4FDF782FE401B642850
:10518000F6D9032001B0F0BD20F001007067FDF7F3
:1051900077FE0546706F80077FF578AFFDF770FEEC
:1051A000401B0228F6D9032001B0F0BDA168306F82
:1051B000002943D0052939D0012957D140F00100F9
:1051C0005AE000BF20F480503060FDF759FE0546DC
:1051D000306880047FF55DAFFDF752FE401B02286A
:1051E0004FF00300F4D9BDE6306820F080703060E5
:1051F000FDF746FE022D05460CD100BF3068800148
:105200004CD5FDF73DFE401B02284FF00300F5D9B9
:10521000A8E600BF306880017FF56DAFFDF730FE76
:10522000401B02284FF00300F4D99BE640F0040035
:105230003067306F40F001001EE000BF20F0010039
:105240003067306F20F004003067FDF719FE054627
:1052500041F28837306F80077FF51EAFFDF710FEF3
:10526000401BB8424FF00300F4D97BE620F0010068
:105270003067306F20F004003067FDF701FE05460F
:1052800041F28837306F80073FF506AFFDF7F8FD34
:10529000401BB8424FF00300F4D963E604F128073D
:1052A000B06A40F2F33188438ECF0843591E40EA7A
:1052B00002104FF47E426FF35F21B06202EB472091
:1052C0004FF4FE0280B2E36B0844A16B02EB014194
:1052D0004FF0FE4201F4FE0102EB0362084402F0CB
:1052E000FE4108443063F06A4FF6F87120F0010087
:1052F000F062706BA26C884340EAC2007063F06A8F
:10530000216C20F00C000843F062F06A616C20F020
:1053100002000843F062F06A40F48030F062F06A04
:1053200040F40030F062F06A40F48020F062F06AED
:1053300040F00100F062306840F080703060FDF7AE
:105340009FFD0446306880013FF5D5AEFDF798FD1E
:10535000001B02284FF00300F4D903E60000000010
:10536000002847D02DE9F04143F600040168C4F25B
:10537000000443F2000E43F6004CA142C4F2010EB9
:10538000C4F2000C4FF00002826203D0614518BFE6
:10539000714541D1C26B0125C368A14203F10803E5
:1053A00005EB52124FEAD30303FB02F218BF71451B
:1053B00022D1102A33D890F8811031B9002180F819
:1053C0008010044600F088F82046022180F8811001
:1053D0000168D0F818C00B68BCF1806F23F001039E
:1053E0000B6027D14368EBB1B3F5800F22D1836BFB
:1053F00003BB1BE001207047614518BF082A0ED887
:105400000CF574439942D4D06145D4D1102A84BF9D
:105410000120BDE8F081CEE7C2680F2ABAD9012089
:10542000BDE8F081836BB3F1805F03D10B6843F477
:1054300080530B60C369856A2B43C56B1D43D0E95C
:105440000328D0E9013E2A438A60426B846B456A97
:1054500042EA0502056A42EA0402446942EA080295
:1054600042EA0402D0E9127642EA050242EA060262
:10547000866D42EA0E0242EA070242EA060242EA68
:105480000C0242EA0302CA6063B10A6D5B0222F0B9
:1054900001020A6514D5CA68436D22F000421A431E
:1054A000CA600DE08A68012363F3CC228A608A68AF
:1054B000022363F34A228A600A6D22F001020A6520
:1054C0000021C0F88410012180F881100020BDE87F
:1054D000F081000000000000F0B587B043F2004109
:1054E0000068C4F20101002688420696CDE90466F0
:1054F0000396029602D007B0F0BD00BF44F2E04030
:1055000041F20004C5F60200C5F6020402AD0169CD
:1055100041F400510161016901F4005101910199C7
:10552000016841F010010160016801F01001019172
:105530000199016841F010010160016801F010015A
:1055400001910199016841F010010160016801F0C9
:10555000100101910199016841F01001016000689A
:10556000294600F01000019001984FF4A0400290ED
:105570000220CDE903060320059005200690204671
:10558000FDF77EFB4FF4007002902046294601276C
:105590000596CDE90376FDF773FB4FF4807029463D
:1055A000CDE902072046CDE90466FDF769FB4FF41B
:1055B00000602946CDE902072046CDE90466FDF7E3
:1055C0005FFB4FF480602946CDE902072046CDE914
:1055D0000466FDF755FB07B0F0BD000000000000B9
:1055E0002DE9F047044690F88000012802D10220FE
:1055F000BDE8F0871D4617460E46D4F800900120FE
:1056000084F88000FDF73CFC94F88110012909D151
:10561000002E18BF002F0BD1002084F8800001203D
:10562000BDE8F087002084F880000220BDE8F08704
:105630008046032084F881000020C4F88400E665D9
:10564000A4F86070A4F862706066A4F86800A4F81A
:105650006A00A1682067B1F5C02F6067206803D198
:10566000016841F40061016041684FF6FF729143A7
:1056700039444160016841F0010101606168B1F5A0
:10568000800F03D1016841F400710160E1681029C5
:105690004CD3B4F86200002800F0C480681C10D11C
:1056A00031E000BFE16D51F8042B0262E165B4F80E
:1056B00062000138A4F86200B4F86200002800F02B
:1056C000B180206841698907ECD4FDF7D9FBA0EBD4
:1056D0000800A842F0D3204603F0B2F8002084F876
:1056E0008000D4F8840040F48070C4F88400012065
:1056F00084F88100BDE8F087FDF7C2FBB4F86200D2
:10570000002800F08F80206841698907F4D5E16D99
:1057100051F8042B0262E165B4F862000138A4F884
:105720006200B4F862000028EDD17BE0B4F86200BA
:10573000072933D9002875D04FF6FE706E1C471C20
:1057400013E000BFE06B0028E06D20D050F8042B80
:105750000A624FF6FE71E065B4F862000844A4F8EE
:105760006200B4F8620000285CD0216848698007B4
:1057700008D4FDF785FB002EF3D0A0EB0800A8426B
:10578000EFD3A8E7B4F862000128DBD8E06D30F869
:10579000021BA9F820103946DDE700BF002841D0E0
:1057A0004FF6FE706E1CA0F1020A471C0EE000BF0F
:1057B000E16D51F8042B02625046E165B4F86210C5
:1057C0000844A4F86200B4F8620058B32068416944
:1057D000890709D4FDF754FB002EF4D0A0EB080094
:1057E000A842F0D377E700BFB4F86210042902D3CF
:1057F000E16B4129DCD2B4F8621001290AD9E16BCE
:105800000029E16D07D031F8020BA9F820004FF60E
:10581000FE70D2E7E16D097880F82010E06D411C40
:105820003846CAE7681C13D020684069000713D4C3
:10583000FDF726FBA0EB0800A842F5D3D4F88400BE
:1058400040F02000C4F8840006E000BFFDF718FB1C
:10585000206840690007F9D5204602F0F1FF0020DA
:1058600084F88000012084F88100D4F884000028A6
:1058700018BF0120BDE8F0874EF210010428CEF2D7
:1058800000010A6822F0040208BF04320A6070476F
:10589000411E0020B0EB116F02D00120704700BF05
:1058A0004EF21002F023CEF2000251604EF6235168
:1058B000CEF200010B70072190601160704700006C
:1058C000704700000000000070470000000000006A
:1058D000704700000000000060B310B5044690F867
:1058E0003D0028B9002084F83C00204600F024F850
:1058F000022084F83D002068211D04F065F9012094
:1059000084F8480084F83E0084F83F0084F84000A2
:1059100084F8410084F8420084F8430084F844008D
:1059200084F8450084F8460084F8470084F83D0078
:10593000002010BD0120704741F200010068C4F250
:105940000001884218BF704780B582B044F2E84039
:105950000022C5F60200016841F0100101600068F4
:10596000002100F01000019001983620FDF790FC16
:10597000362002B0BDE88040FDF776BC0000000094
:1059800090F83D10012921D1022180F83D100168D5
:1059900040F6FF30C4F200008142C86840F00100C8
:1059A000C86015DD4FF6FF70C4F2000081421FDCB5
:1059B00040F60040C4F20000814224D041F60000CD
:1059C000C4F2000081421ED02AE000BF01207047CF
:1059D000B1F1804F17D040F20040C4F20000814284
:1059E00011D040F60000C4F2000081420BD017E055
:1059F00040F20040C4F20100814204D00020C4F211
:105A0000010081420CD107228868C0F201020240E5
:105A10000020062A18BFB2F5803F01D1704700BFB1
:105A2000086840F001000860002070470000000096
:105A3000704700000000000010B5044600680169CE
:105A4000890744BFC1685FEA81713FD40169490792
:105A500044BFC1685FEA417144D40169090744BF8A
:105A6000C1685FEA01714BD40169C90644BFC168CE
:105A70005FEAC16150D40169C9071CBFC1685FEA10
:105A8000C17157D10169090644BFC1685FEA01616C
:105A900058D40169C90544BFC1685FEA016159D49E
:105AA0000169490644BFC1685FEA41615AD401698E
:105AB000890646BFC1685FEA816110BD6FF02001B1
:105AC00001612046BDE81040FFF702BF6FF0020100
:105AD000016101212177806980074BD02046FFF7C3
