:020000040800F2
:1000000090540020AD02000899A30008E18C00087C
:1000100041A30008B9150008B1D100080000000094
:10002000000000000000000000000000B1B3000864
:10003000792100080000000059A60008C9BB00088B
:10004000C7020008C7020008C7020008C70200086C
:10005000C7020008C7020008C7020008C70200085C
:10006000C7020008C7020008C7020008C70200084C
:10007000C7020008C7020008C7020008C70200083C
:10008000C7020008C7020008C7020008C70200082C
:10009000C7020008C7020008C7020008C70200081C
:1000A000C7020008C7020008C7020008C70200080C
:1000B000C7020008C7020008C7020008C7020008FC
:1000C000C7020008C7020008C7020008C7020008EC
:1000D000C7020008C7020008C702000829D10008AB
:1000E000C7020008C702000800000000C70200089D
:1000F000C7020008C7020008C7020008C7020008BC
:10010000C7020008C7020008C7020008C7020008AB
:10011000C7020008C7020008D1BD0008C7020008D6
:10012000C7020008C7020008C7020008C70200088B
:10013000C7020008C7020008C7020008C70200087B
:1001400000000000000000000000000000000000AF
:10015000C7020008C7020008691B0008C7020008A0
:10016000C7020008C7020008C7020008C70200084B
:10017000C7020008C702000851190008C70200089A
:10018000C7020008C7020008C7020008C70200082B
:10019000C7020008C7020008C7020008C70200081B
:1001A000C7020008C7020008C7020008C70200080B
:1001B000C7020008C7020008C7020008C7020008FB
:1001C000C7020008C7020008C7020008C7020008EB
:1001D000C7020008C7020008C7020008C7020008DB
:1001E000C7020008C7020008C7020008C7020008CB
:1001F000C7020008C7020008C7020008C7020008BB
:10020000C7020008C7020008C7020008C7020008AA
:10021000C7020008C7020008C7020008C70200089A
:10022000C7020008C7020008C7020008000000005B
:10023000C7020008C702000800000000C70200084B
:10024000C7020008C7020008C7020008C70200086A
:10025000C7020008C7020008C7020008C70200085A
:10026000C7020008C7020008C7020008C70200084A
:10027000C7020008C7020008C7020008000000000B
:10028000C7020008C7020008C702000800000000FB
:1002900000000000C7020008DFF80CD000F066FA8A
:1002A0000048004789E00008905400200648804735
:1002B00006480047FEE7FEE7FEE7FEE7FEE7FEE74B
:1002C000FEE7FEE7FEE7FEE7F1BC00089902000842
:1002D0002DE9F05F0546002092469B46884606467B
:1002E000814640241BE0284641464746224600F00E
:1002F00075F853465A46C01A914110D31146184614
:10030000224600F05CF82D1A67EB01084F462246A2
:100310000120002100F053F817EB00094E41201E88
:10032000A4F10104DFDC484631462A464346BDE8D5
:10033000F09F40EA01039B0703D009E008C9121FA0
:1003400008C0042AFAD203E011F8013B00F8013B8F
:10035000521EF9D27047D2B201E000F8012B491EBB
:10036000FBD270470022F6E710B513460A46044652
:100370001946FFF7F0FF204610BD10B5044604E013
:100380000B7800F8013B03B1491C521EF8D22046FD
:1003900010BD30B50B46014600202022012409E0A3
:1003A00021FA02F59D4205D303FA02F5491B04FA2E
:1003B00002F52844151EA2F10102F1DC30BD202A0D
:1003C00004DB203A00FA02F1002070479140C2F1AC
:1003D000200320FA03F3194390407047202A04DBDE
:1003E000203A21FA02F00021704721FA02F3D040AE
:1003F000C2F1200291400843194670472DE9FE4F93
:10040000804681EA0300C00F0C46009021F00041B5
:1004100023F00045B8EB0200A94105D24046214631
:1004200090461C460B46024623F00040104347D03E
:10043000270DC7F30A00C3F30A510290401A019036
:1004400040286BDAC3F3130040F4801B00989246F7
:1004500020B10023D2EB030A63EB0B0B0198594642
:10046000C0F140025046FFF7AAFF06460D4650462F
:100470005946019A00F092F910EB080061410024FE
:1004800087EA115284EAE7731A4340D0009A62B3B4
:10049000019A012A4FEA075215DC001B61EB0201A9
:1004A0004FF0004202EA0752CDE90042001C41F53C
:1004B000801132462B4600F092F903B0BDE8F08F70
:1004C00040462146F9E7001B61EB0201001C41F5A3
:1004D000801300185B412018A2F5001747EB0301B9
:1004E00040EAD570B6196D4111E06D084FEA360645
:1004F00045EAC0754FEA0752001B61EB0201001C80
:1005000041F5801149084FEA300000195141324647
:100510002B4603B0BDE8F04F00F052B9009801221D
:1005200040000023D0EB020263EBE0730098214609
:100530004FEAE074B8EB000061EB0401E9E783F0F7
:1005400000435BE781F0004158E72DE9FE4F81EA67
:10055000030404F0004421F0004100944FF0000B2C
:1005600023F0004350EA01045ED052EA03045BD05A
:10057000C3F30A54C1F30A552C44A4F2F334019492
:10058000A0FB0254C1F3130141F48011C3F3130320
:1005900043F4801301FB024400FB034E840A970AD4
:1005A00044EA815447EA8357A4FB076802958D0A01
:1005B00005FB07854FEA932C04FB0C542705029D8D
:1005C0004FEA065847EA1637B5EB08056EEB070CFD
:1005D000870E920E47EA811742EA8312A7FB0201B7
:1005E000B6EB0B0164EB00042B0D43EA0C335E18F1
:1005F00044EB1C50DA465146E7FB0201C5F31304F5
:100600004FEA0B3343EA14534FEA0432019C43EAA6
:100610000603A4F10C040294009CCDE900B400F0A0
:10062000DEF803B0BDE8F08F00200146F9E72DE9C0
:10063000F04D81EA030404F0004B21F0004514461C
:100640004FF0000A23F0004150EA050220D054EA9E
:1006500001021DD0C5F30A570246C5F31303C1F3C7
:100660001300C1F30A5640F4801543F48013A7EB3E
:100670000608101BD64608F2FD3873EB050002D3BE
:1006800008F1010801E092185B41B8F1000F03DAAC
:1006900000200146BDE8F08D00204FF48011064691
:1006A00084460EE0171B73EB050705D3121B63EBA3
:1006B000050306434CEA010C49084FEA3000921842
:1006C0005B4150EA0107EDD152EA030012D082EA01
:1006D000040083EA0501084305D0101BAB4106D294
:1006E0000122002306E000224FF0004302E06FF0F9
:1006F000010253101AEB06004CEB085110EB0A00F4
:1007000041EB0B01BDE8F04D00F05AB8C1F30A52BD
:10071000C1F3130140F2FF3341F480119A4202DA2F
:1007200000200146704740F233439A42A2F233421E
:1007300002DC5242FFF752BEFFF741BE30B5041E45
:1007400071F1000404DB4FF00044404264EB01010E
:10075000141E73F1000405DB1C464FF000435242A7
:1007600063EB0403994208BF904230BD1CB50948B1
:100770000090094801900546009C06E0E06840F0C2
:10078000010394E8070098471034AC42F6D3FFF712
:1007900087FD00003809010858090108202A06DBF6
:1007A000CB17203A41FA02F043EAE07306E041FA3F
:1007B00002F3D040C2F1200291400843194670472D
:1007C00010B5141E73F1000408DA401C41F1000159
:1007D00092185B411A4301D120F0010010BD2DE9B0
:1007E000F04D92469B4611B1B1FA81F202E0B0FAA7
:1007F00080F220329046FFF7E2FD04460F4640EAC1
:100800000A0041EA0B0153465A46084313D01146E9
:1008100053EA010019D0C8F140025046FFF7DEFD4F
:1008200005460E46504659464246FFF7C8FD084366
:1008300005D0012004E020463946BDE8F08D0020B7
:10084000054346EAE0762C4337430A986305E40AF9
:10085000A0EB08000022FD0A44EA47540A3002D502
:1008600000200146E9E7010510196941DDE9084565
:1008700000196941BDE8F04DA2E70000000000004A
:100880002DE9F04F40F244024EF2B220C2F20002D3
:100890004FF6C33C4BF2CB5ACDF2CA405578CDF25D
:1008A000D76CCFF2C37A002D00F0358140F2C42E10
:1008B00041F6010B05F003080024042DC2F2000EDE
:1008C000C0F6000BC0F0AB80AEF5F87705F0FC0980
:1008D000032600BFF11EA7F8F01187F8F211B11E30
:1008E000A7F86C12731C87F86E12711EA7F8E81235
:1008F000351D87F8EA1207F5F87187F800424B4575
:1009000087F8044287F8084287F80C4287F81042BB
:1009100087F8144287F8184287F81C4287F8664225
:10092000C7F8F341C7F8F741A7F8FB41C7F868B229
:10093000C7E9880C87F8284287F83C42C7E98D0A46
:1009400087F87C4287F8804287F8844287F888429B
:1009500087F88C4287F8904287F8944287F898424B
:1009600087F8E242C7F86F42C7F87342A7F87742A8
:10097000C7F8E4B287F8A442C7E9A70C87F8B842E1
:10098000C7E9AC0A87F8F84287F8FC4287F80043C9
:1009900087F8044387F8084387F80C4387F8104327
:1009A00087F8144387F85E43C7F8EF42C7F8EB4275
:1009B000A7F8F342C7F860B387F82043C7E9C60C2D
:1009C00087F83443C7E9CB0AA7F8646387F86663FE
:1009D0002E4687F8744387F8784387F87C4387F876
:1009E000804387F8844387F8884387F88C4387F8E7
:1009F000904387F8DA43A7F86F43C7F86B43C7F80B
:100A00006743C7F8DCB387F89C43C7E9E50C87F870
:100A1000B043C7E9EA0A0F467FF45CAFEC1EB8F1B9
:100A2000000F78D0C4EB44110025B8F1010F0EEB94
:100A300081062EF82140B4703574357535763577DA
:100A400086F8205086F8245086F8285086F82C50D6
:100A500086F87650C6F80350C6F80750A6F80B5033
:100A6000C6F878B0C6E90C0C86F8385086F84C50B9
:100A7000C6E9110A4FD0611CB8F1020FC1EB411653
:100A80000EEB86072EF82610B9703D743D753D7645
:100A90003D7787F8205087F8245087F8285087F84A
:100AA0002C5087F87650C7F80350C7F80750A7F8BE
:100AB0000B50C7F878B0C7E90C0C87F8385087F8A6
:100AC0004C50C7E9110A26D0A11CC1EB41140EEB12
:100AD00084052EF82410A97000212974297529761F
:100AE000297785F8201085F8241085F8281085F8D6
:100AF0002C1085F87610C5F80310C5F80710A5F876
:100B00000B10C5F878B0C5E90C0C85F8381085F8DD
:100B10004C10C5E9110A9378002B00F0A38040F631
:100B2000802803F0030E042B4FF00004C2F20008EB
:100B300052D3A8F5A87603F0FC090321082300BFCF
:100B4000CD1EA6F850518D1EA6F8A4514D1EA6F834
:100B5000F85106F5A8724F1C0D1D86F85231C6E9F2
:100B60005540C6F85CC14F4586F86041C6E95B0A4E
:100B700086F87441C6F8A04186F8A631C6E96A40F5
:100B8000C6F8B0C186F8B441C6E9700A86F8C84113
:100B9000C6F8F44186F8FA31C6E97F40C6F804C2C7
:100BA00086F80842C6E9850A86F81C42C6F848421B
:100BB000A6F84C12294686F84E32C6E99440C6F88B
:100BC00058C286F85C42C6E99A0A86F87042C6F8AE
:100BD0009C421646B4D1EC1EBEF1000F42D0542503
:100BE000082604FB05F1002304FB0587BEF1010F75
:100BF00028F80140BE70C7E90130C7F80CC03B744B
:100C0000C7E9070A87F824303B652BD0611CBEF189
:100C1000020F01FB05F701FB058528F80710AE70F0
:100C2000C5E90130C5F80CC02B74C5E9070A85F881
:100C300024302B6508BFBDE8F08FA11C542301FBB5
:100C400003F701FB038328F807100821997000219E
:100C5000C3E90110C3F80CC01974C3E9070A83F88B
:100C600024101965BDE8F08F80B584B08DF80C10A4
:100C7000014466318DF80B000844114408444BF6DA
:100C8000AB2308308DF80F0044F6D470C0F2FE0399
:100C9000CDF805300323ADF80930C2F200008DF81D
:100CA0000D200B228DF80E100DF10501642307F0C5
:100CB000A7FF04B080BD000080B584B040F24401BD
:100CC0004BF6AB20C2F20001CCF2FE10CDF80500CD
:100CD00003204978ADF8090000208DF80B008DF84D
:100CE0000D0001F127008DF80C1001448DF80E0065
:100CF00001F133008DF80F0044F6D470C2F2000009
:100D00000DF105010B22642307F07AFF04B080BDCA
:100D100070B598B004464BF6AB20CCF2FE200190A3
:100D20005320ADF808002068CDF80A00207901AE04
:100D300004F130018DF80E00D4F80500CDF80F0055
:100D4000D4F80920CDF8132006F113001422FFF780
:100D5000F0FA04F1440106F127003222FFF7E9FA24
:100D600000200021002200BF335C582819440A44A7
:100D70000CD0331804305C789D78DB7821440A4429
:100D800029440A4419440A44EEE700BF44F6D470EB
:100D90008DF85D108DF85E20C2F2000001A95B2283
:100DA000642307F02DFF18B070BD000000000000A4
:100DB00080B586B04BF6AB200DF10601CEF2FE30C9
:100DC000CDF806000A201222C0F2BA10CDF80A00AF
:100DD0004FF00120CDF80E0040F200106423CBF656
:100DE0000020CDF8120048F6C870ADF8160044F6A1
:100DF000D470C2F2000007F003FF06B080BD00000F
:100E000080B584B040F244014BF6AB20C2F2000141
:100E1000CEF2FE00CDF805000320ADF80900012058
:100E20008DF80B00887800218DF80D1000F1470136
:100E30008DF80C0008448DF80E1030388DF80F0036
:100E400044F6D4700DF10501C2F200000B226423B8
:100E500007F0D6FE04B080BD2DE9F04F85B0837851
:100E60004FF0000C00224FF0010A082B00F28480A2
:100E70004FF0000B4FF000090025DFE803F01313DB
:100E80000B0B05051919050004254FF0000A012276
:100E90000EE000BF02254FF0000A01224FF00109C9
:100EA00006E000BF01224FF0000A4FF0010B0125C0
:100EB0004BF6AB21CEF2FE11CDF8061005F1020182
:100EC0008DF80A1001880DF106088DF80BC0ADF8F9
:100ED0000C1042B1011D08F108002A46012D98BFEF
:100EE0000122FFF726FA9DF806109DF80A709DF87A
:100EF00007209DF80B309DF808409DF80C009DF8E8
:100F000009600A441444114426442144BA19314466
:100F1000134411449DF80D2018441944BAF1000FF0
:100F200001441044014415D19DF80E20BBF1000F7F
:100F3000104401440ED19DF80F20B9F1000F104468
:100F4000014407D19DF810209DF811301044014450
:100F50001844014405EB08026423107244F6D4706F
:100F6000517205F10A02C2F20000414607F048FE44
:100F700005B0BDE8F08F00BF4FF0000B4FF0000947
:100F8000002595E70000000070B596B004464BF6CA
:100F9000AB20CEF2FE20CDF807004920ADF80B00C3
:100FA00020780DF107068DF80D00B4F8010004F16A
:100FB0000801ADF80E0006F109001422FFF7B9F997
:100FC00004F11C0106F11D003222FFF7B2F90020E6
:100FD000002100223318345C4C2821445C789D7831
:100FE0000A4421440A4429440A4405D0DB780430E9
:100FF00019440A44EEE700BF44F6D4708DF8561049
:101000008DF85720C2F200000DF107015122642330
:1010100007F0F6FD16B070BD80B59AB010EE102A3C
:10102000A0F150038DF807004FF6AB6100EB4300D1
:10103000ADF804101344FF218DF806100821ADF817
:10104000081010EE901A184403EB1223184403EB17
:101050001243CDF80A20184403EB1262CDF80E10AB
:1010600010440A44104402EB1122104402EB1142D6
:10107000104402EB116108448DF812105C388DF8B1
:10108000130044F6D47001A9C2F2000010226423B8
:1010900007F0B6FD1AB080BD10B59AB010EE103A48
:1010A000A0F1480E8DF807004FF6AB6100EB4E043F
:1010B000ADF804100EEB0300FF218DF8061010218F
:1010C000ADF8081010EE901A044400EB132004440D
:1010D00000EB1340044400EB1360CDF80A302318F2
:1010E000084411EE102A034400EB1120034400EBE6
:1010F0001140034400EB1160CDF80E101918104494
:1011000011EE90CA014400EB1220014400EB1240A2
:10111000014400EB126001446044014400EB1C20D8
:10112000014400EB1C40014400EB1C6001448DF8BD
:101130001A00A1F15C008DF81B0044F6D470CDF8C4
:101140001220C2F2000001A918226423CDF816C0B3
:1011500007F056FD1AB010BD70B584B040F2BC1552
:10116000C2F200056978212900F2A281DFE811F0BE
:101170002200A001A001A001A001A001A001A001E6
:10118000A001A0016A003600A000A001A001A001FA
:10119000A001A001A001A001B000400070007A00F1
:1011A000A001A001A001A001A001A001BA00B60009
:1011B0002C004400AB2840F07B810020E8700A201E
:1011C000A5F8010004B070BDA978EA786B189142C7
:1011D000987243D32120687004B070BDFF2818BFF7
:1011E000BA2840F071800C20687004B070BD00BF58
:1011F0001620687004B070BD2979C02900F07C8089
:10120000C12940F05181A87AB5F80B106871002807
:10121000298100F00581012840F0468140F2440018
:10122000C2F200000078012840F03E81288940F297
:10123000C421C2F20001C0EB401001EB8000FFF7B7
:1012400067FD31E1FE283FD10B20687004B070BD0E
:10125000A978EA786B189142987249D2481CA87014
:1012600004B070BD2979E12900F0B280E02940F096
:101270001B81A97AB5F80B20697110292A8100F227
:101280001381DFE811F01100E300D700E70011013E
:1012900011011101110111011101110111011101BE
:1012A000110111011101F300FFF782FDFCE000BF05
:1012B00000F0FE012871C02900F0AE80E02903D1C2
:1012C0001420687004B070BD0020687004B070BD58
:1012D000E8701520687004B070BD00BF20206870F1
:1012E00004B070BDE8701F20687004B070BD00BF0E
:1012F0001720687004B070BDA97A40F2C42395F835
:1013000003C0C2F20003E971C1EB4112BCF1040F4A
:101310004FF0010103EB820282F8761030D30023F4
:10132000002402E00133082B2AD0D1184979013971
:101330000829F7D8DFE801F01C1C0808121206067D
:10134000120000BFEEE700BF55FA84F1023402EB51
:101350008306B1F80D103182E4E700BF55FA84F13D
:10136000043402EB8306D1F80D103161DAE700BFD7
:1013700055FA84F1013402EB8306497B3174D1E7DD
:1013800005EB0C014BF6AB22C0F2FE02CDF80520B6
:10139000897A0322ADF80920C0228DF80B2042186B
:1013A0008DF80D0002F126008DF80C1001448DF827
:1013B0000E00A1F112008DF80F0044F6D470C2F2B5
:1013C00000000DF105010B22642307F019FC6BE00E
:1013D00040F244026989C2F2000229819278914266
:1013E00062D2064640F680225420C2F2000201FB7F
:1013F00000208378082B4ED8DFE803F046463E3EB7
:1014000006064D4D060000BF542301FB03210422B4
:101410002A70EA684A603EE01E20687004B070BD21
:1014200040F24400C2F20000007801283CD1FFF7EE
:1014300043FC39E0288940F680215422C2F20001A1
:1014400000FB0210FFF708FD2EE000BFFFF7D8FCFD
:101450002AE000BF288940F680215422C2F2000110
:1014600000FB0210FFF790FD1EE000BFE978024686
:10147000E0202944897A15E0542301FB032102224C
:101480002A70AA898A8006E0542301FB03210122E5
:101490002A702A7B0A7109F0C3F8E878324628449A
:1014A000817AE120FFF7E0FB002068700120A8713D
:1014B00004B070BD000000002DE9F04786B044F292
:1014C000E0470026C5F602070596CDE90366CDE99B
:1014D0000166386840F2000A40F001003860386860
:1014E000C5F6020A00F0010000900098386840F04C
:1014F00004003860386801AD00F0040000900098E6
:101500004FF48070019012200290504629464FF00F
:101510000108CDF80C804FF00209CDF8109004249A
:10152000059403F069FA4FF4007001900AF5006029
:101530002946059403F060FAB86844F6F06540F473
:101540000000B860B868C2F2000500F40000009026
:10155000009845F60040C4F2000047F6BB41C0F2D7
:10156000700185E843012846C5E90466C5E90766B8
:1015700003F06AFB0021284603F03EFB059601A913
:10158000CDE90366CDE90166386840F008003860AF
:10159000386800F00800009000980320CDE90108A9
:1015A0000AF54060CDF8109003F026FA06B0BDE8C9
:1015B000F087000000000000FEE7000000000000CF
:1015C000B0B58EB044F2E0400025C5F60200CDE98A
:1015D0000C55CDE90A55CDE90855CDE90655CDE9BB
:1015E0000455CDE90255016841F00101016001682F
:1015F00001F0010101910199816841F001018160CF
:10160000806809A900F0010001900198202009904C
:101610000220CDE90A050C9001200D900020C5F6AE
:10162000020003F0E9F940F258144FF08041C2F291
:101630000004204640F8041FEF21C0E901154FF4D3
:10164000B971C0E903158021816106F0DDFD08B1A3
:1016500000F096FD60200290B92002A9CDE90305B3
:10166000201D0022069506F08BFB08B100F088FDD6
:10167000204640F28403C2F2000340F2E14250F8F7
:10168000041FCA621D782261642D28BF64251D7065
:1016900048F21F53CA6AC5F2EB1301326A430025B0
:1016A000A2FB03235A094A63002106F091FE25702C
:1016B0000EB0B0BD00000000B0B540F258140021DB
:1016C000C2F200040025201D06F082FE2570B0BD88
:1016D00010B540F258140021C2F20004201D06F09B
:1016E000CBFD0120207010BD2DE9F04381B040F208
:1016F0005816C2F20006377857B1301D002106F0A7
:1017000067FE87F00100307001B0BDE8F08300BFD4
:1017100040F2C42040F27C05C2F20000C2F2000593
:1017200000F57874002120462A4600F071F82878E8
:1017300040F2840948F21F58C2F20009C5F2EB18C2
:1017400060B1642828BF6420716889F80000CA6A03
:1017500001325043A0FB08025009486340F27A0569
:101760000121C2F2000520462A4600F051F82888DF
:10177000B8B144F240217268C0F20F01B1FBF0F041
:101780000138D06299F800103061642928BF6421C3
:1017900089F80010D06A01304843A0FB08014809CD
:1017A0005063301D002106F067FD87F001003070A6
:1017B00001B0BDE8F0830000F0B581B040F2440410
:1017C000C2F200046078C8B140F2C4210026C2F21F
:1017D0000001002701F1760504E000BF01377C35E8
:1017E00087420BD229780129F8D1D5F802102E7042
:1017F0000029F3D088476078F0E700BF01B0F0BD62
:1018000040F600004FF40051C5F6020003F0D8B9CD
:1018100043185B79A3F1010CBCF1080F0AD8DFE88B
:101820000CF011110B0B05050909050000EB8100F7
:1018300000691060704700BF00EB8100008A1080D3
:10184000704700BF00EB8100007C10707047000003
:1018500010444171704700002DE9F04381B000F160
:1018600030040E46074600F14405462120469846BE
:101870009146FEF777FD132220463146FEF77DFDA7
:10188000312228464946FEF778FDC7F8788001B036
:10189000BDE8F08300000000806B816C496D022977
:1018A00006D0012180F83510C16C41F04001C164BF
:1018B00000F01ABE0000000010B5846BA26BA06C93
:1018C000002A01680A680BD0A36BDB071AD112F457
:1018D000002217D0C968E26B01EBC201002219E0B7
:1018E00010032DD40868000319D4E06BD4E9102349
:1018F00003EB80000861A263A06B216C884212D0C8
:101900001DE000BF0A68120309D40969E26B01EB0C
:10191000C201012201F044F8A06B0138A063A06B62
:10192000216C88420BD12068C16841F00101C1607F
:101930000068800758BF10BD012084F8350010BD35
:10194000606CC860A06B216C8842ECD0F7E70000A7
:1019500040F2B800C2F2000000F0E6BD0000000056
:1019600070B582B009F000FC08F04AFD40F2B00406
:101970000020C2F20004C4F60200002644F8080F5A
:101980002020C4E9020620466660C4E90466A66118
:10199000C4E90866C4E90A66266300F019FE4E2011
:1019A0000021052203F0ACFC4E2003F095FC44F22C
:1019B000D84040F60825C5F60200C2F200050168CD
:1019C00041F002010160006800F00200019040F265
:1019D000B8400199C4F2020028604B20EE60C5E9CE
:1019E00001064FF4806028614FF4805068614FF425
:1019F0008040A8614FF480702E63C5E9070604207B
:101A000068620320C5E90A06284602F0D9FA462092
:101A100000210A22A564AC6303F072FC462003F0A7
:101A20005BFC08F009FDFF20012109F0EDFB0A2015
:101A300009F0CEFB04460B2009F0CAFB40EA042162
:101A400021F00200B0F5195F6ED142A00DF02AFA24
:101A50004FF63430FF25C0F60000841EE8B2E1786E
:101A6000257909F0D1FB002D04F10204F6D1FF2005
:101A70000021002409F0C8FB5A20782109F0C4FB9A
:101A80005B20502109F0C0FB5C20002109F0BCFB69
:101A9000E020002109F0B8FBFF20002109F0B4FB91
:101AA000DA20092109F0B0FBD720032109F0ACFBB3
:101AB000E020002109F0A8FB0520002109F0A4FB8B
:101AC000FF20002109F0A0FB7C20002109F09CFBF5
:101AD0007D20042109F098FB7C20092109F094FB6A
:101AE0007D20002109F090FB7D20002109F08CFB76
:101AF000FF20002109F088FB7C20002109F084FBF5
:101B00007D20182109F080FB7C20052109F07CFB59
:101B10007D20802109F078FB7D20802109F074FB75
:101B200060B202B070BD00BF03A00DF0BBF9FF248E
:101B300060B202B070BD00BF4F563236343020451F
:101B400052524F522121212121202049443A255827
:101B50000D0A00004F5632363430204F4B2C49448A
:101B60003A307825580D0A0040F60820C2F20000ED
:101B700001F026BE0000000040F20F42D0F800C085
:101B8000C4F20202944511DC6F22C4F202029445B1
:101B900022DC3F22C4F20202944539DC1022C4F256
:101BA000020294455AD0282254E000BF40F26F420E
:101BB000C4F2020294451BDC40F23F42C4F202022E
:101BC00094452DDC40F21042C4F20202944545D007
:101BD00040F228423EE000BF9F22C4F20202944538
:101BE00028DC7022C4F20202944537D0882231E00A
:101BF00040F29F42C4F20202944523DC40F270425C
:101C0000C4F20202944529D040F2884222E000BF8B
:101C10004022C4F20202944520D058221AE000BFAC
:101C200040F24042C4F20202944517D040F25842BA
:101C300010E000BFA022C4F2020294450ED0B822E8
:101C400008E000BF40F2B842C4F20202944505D059
:101C500040F2A042C4F20202944517D10CF0F802FF
:101C60004AF6AB23103ACAF6AA23A2FB03310AA311
:101C70005F2AC1F302115B5C40F2FF312CEA0101E3
:101C8000C36588BF04318165084670472CF0FF01A9
:101C900081650846704700BF000610160006101642
:101CA00080B540F20F4ED0F800C0C4F2020EF445E9
:101CB00014DC40F26F0EC4F2020EF44524DC40F254
:101CC0003F0EC4F2020EF4453EDC40F2100EC4F2A8
:101CD000020EF44561D040F2280E5BE040F26F4EF8
:101CE000C4F2020EF4451FDC40F23F4EC4F2020E75
:101CF000F44533DC40F2104EC4F2020EF4454CD0F1
:101D000040F2284E46E000BF40F29F0EC4F2020EA1
:101D1000F4452DDC40F2700EC4F2020EF4453CD0C6
:101D200040F2880E36E000BF40F29F4EC4F2020E31
:101D3000F44527DC40F2704EC4F2020EF4452CD07C
:101D400040F2884E26E000BF40F2400EC4F2020E80
:101D5000F44522D040F2580E1CE000BF40F2404E45
:101D6000C4F2020EF44518D040F2584E12E000BF03
:101D700040F2A00EC4F2020EF4450ED040F2B80EAE
:101D800008E000BF40F2B84EC4F2020EF44504D0A1
:101D900040F2A04EC4F2020EF445CCF80430806844
:101DA000402805D1CCF80820CCF80C1080BD00BF2D
:101DB000CCF80810CCF80C2080BD0000000000001A
:101DC00070B540F26F44D0F800C0C4F20204D0F8FD
:101DD00058E0A4451ADC9F25C4F20205AC4533DC6B
:101DE0005725C4F20205AC455ADC1025C4F20205A1
:101DF000AC4500F098802825C4F20205AC4500F0FF
:101E000092804025C4F202058AE000BF45F22F45CA
:101E1000C5F60205AC452DDC40F2B745C4F202051B
:101E2000AC454BDC40F27045C4F20205AC457AD0BB
:101E300040F28845C4F20205AC4574D040F2A0459A
:101E4000C4F202056CE000BF40F22745C4F202056F
:101E5000AC4543DCA025C4F20205AC4563D0B825EF
:101E6000C4F20205AC455ED040F21045C4F2020552
:101E700056E000BF45F26B45C5F60205AC453FDCB8
:101E800045F23045C5F60205AC454CD045F2444517
:101E9000C5F60205AC4546D045F258453EE000BFC8
:101EA0005825C4F20205AC453DD07025C4F20205A8
:101EB000AC4538D08825C4F2020531E040F2B8457F
:101EC000C4F20205AC452ED045F20845C5F6020520
:101ED000AC4528D045F21C4520E000BF40F2284523
:101EE000C4F20205AC451ED040F24045C4F20205E2
:101EF000AC4518D040F25845C4F2020510E000BFCE
:101F000045F26C45C5F60205AC450CD045F294454A
:101F1000C5F60205AC4506D045F28045C5F602057A
:101F2000AC4540F0D080456EC66E002E866E6E6069
:101F30001CBFD0E91C566E60A44515DC9F24C4F27A
:101F40000204A4452CDC5724C4F20204A44551DC4D
:101F50001024C4F20204A4457AD02824C4F2020456
:101F6000A44575D040246FE045F22F44C5F6020425
:101F7000A44529DC40F2B744C4F20204A44545DC80
:101F800040F27044C4F20204A44561D040F2884497
:101F9000C4F20204A4455BD040F2A04454E000BF68
:101FA00040F22744C4F20204A4453FDCA024C4F25A
:101FB0000204A4454CD0B824C4F20204A44547D07E
:101FC00040F2104440E000BF45F26B44C5F6020405
:101FD000A44555DC45F23044C5F60204A44561D061
:101FE00045F24444C5F60204A4455BD045F258448A
:101FF00054E000BF5824C4F20204A44528D0702441
:10200000C4F20204A44523D088241DE040F2B84461
:10201000C4F20204A4451BD045F20844C5F60204EC
:10202000A4453FD045F21C4438E000BF40F22844AC
:10203000C4F20204A4450BD040F24044C4F20204AE
:10204000A44505D040F25844C4F20204A4453AD154
:102050008468C06D00F01F003F2505FA00F0CEF83F
:102060000800DCF80000402C20F48020CCF80000B0
:10207000CCF8043023D1CCF80820CCF80C1070BD7B
:1020800045F26C44C5F60204A4450BD045F28044E9
:10209000C5F60204A44505D045F29444C5F60204F1
:1020A000A44510D1C46D012504F01F04806805FA11
:1020B00004F4CEF804404028CCF80430DBD0CCF84F
:1020C0000810CCF80C2070BD70B540F22C2543F6FA
:1020D0009064C2F20005C2F20004D5E91212216038
:1020E000296DA16042F65461C2F20001A8686260E5
:1020F000CA69E2600A6A2261496A616108F00CFDFE
:10210000A9684FF48052204608F08AFD40F61A1262
:1021100040F6FE01C0F60102C0F601010028A861E8
:1021200008BF114608460DF087FC41F6CC5440F23A
:102130008006C2F20004C2F20006D5E9090120605F
:102140003068616008F0E8FC31684FF48052204646
:1021500008F066FD40F6E20240F68901C0F6010291
:10216000C0F60101002808BF114668610846BDE8B5
:1021700070400DF061BC00007047000000000000DE
:10218000EFF3108072B600BFFEE700000000000011
:102190002DE9F0478AB044F2E0400024C5F6020081
:1021A0000994CDE90744CDE90544016840F20046B1
:1021B00041F0020101600168C5F6020601F002016A
:1021C00004910499016841F01001016001680DF16A
:1021D000140901F0100104910499816841F480010F
:1021E00081608068494600F48000049004984FF4B0
:1021F0004060059012200690042009903046012589
:1022000007954FF00208CDF8208002F0F5FB4FF45F
:1022100080504946CDE905053046CDE9075802F022
:10222000EBFB05A9802081E8310106F540604946B5
:1022300002F0E2FB40F2081A45F60000C2F2000A82
:10224000C4F20000574647F8040F47F6BB40391D5B
:10225000C0F27000C7E9044431C138463C62C7E9A6
:10226000064402F0F1FC4FF480510022304602F0A7
:10227000ABFC0A200BF01CFC4FF4805101223046CD
:1022800002F0A2FC4FF4FA700BF012FC7021A822AD
:1022900001233846CDE900956424029402F028FD1C
:1022A0009DF81400112824D10AF1040670219F2200
:1022B000012330460294CDE90098012502F018FD73
:1022C0009DF81400262814D19DF81500022810D876
:1022D00001207021CDE90090A32201236420029007
:1022E000304602F005FD9DF81400B0F1640518BFFA
:1022F000012528460AB0BDE8F08700000000000074
:10230000F0B585B040F20815C2F20005287801301A
:102310002870C1B20A290BD3CD225143C90A01EB5F
:102320008101A0EB4100000602D0002050E000BF78
:102330002C1D0DF10F000090012001907021022250
:10234000012320466427029702F0D2FC9DF80F106B
:10235000481EC0B201281BD8FF2040F2A0068840CA
:10236000C2F2000600F0C70004A980F00700307335
:1023700004200322CDE9001070210123204602979A
:1023800002F0B6FC307BC00706D13089728915E0B7
:10239000002009062DD11BE09DF810009DF81210B9
:1023A0009DF8112000F00F009DF8133001F00F018F
:1023B00042EA0020308143EA012272819DF80F1029
:1023C000104308BF0146002028700120090610D1E3
:1023D00040F2A001C2F2000191F90C20002A05D4BC
:1023E0004FF0FF338B60602301E000BF7F231A4072
:1023F0000A732978F12901D205B0F0BD0A212970AC
:1024000005B0F0BD0000000070B582B040F2C420FD
:102410000DF10705C2F20000002100F559742A46AB
:102420002046FFF7F5F99DF8070040F29426C2F226
:102430000006012101382A46B0FA80F04009B07444
:102440002046FFF7E5F99DF8070002212A460138EA
:10245000B0FA80F04009F0742046FFF7D9F99DF8F2
:10246000070003212A460138B0FA80F04009307590
:102470002046FFF7CDF99DF8070004212A460138D0
:10248000B0FA80F0400970752046FFF7C1F99DF859
:10249000070005212A460138B0FA80F04009B075DE
:1024A0002046FFF7B5F99DF8070006212A460138B6
:1024B000B0FA80F04009F0752046FFF7A9F99DF8C1
:1024C000070007212A460138B0FA80F0400930762B
:1024D0002046FFF79DF99DF807000138B0FA80F01B
:1024E0004009707602B070BD704700000000000027
:1024F00010B502F079FB40F2B004C2F2000461684A
:10250000401AC0087C2809D902F06EFB6060607830
:10251000A070012060700120207010BD6078013033
:1025200060700120207010BD70B50446006841F64F
:1025300099060569C0F60006690721D4A8072DD4BD
:10254000E8063BD4280705D52068082141612046CC
:1025500000F022FAE80708BF70BD2068016889070B
:1025600003D5C16821F01E01C160C16821F00101DD
:10257000C160012141612046BDE87040FFF7B8BF4E
:1025800004214161E06C40F00200E06484F8351001
:10259000A06C066500F0B8FFA807D1D5216802221B
:1025A000A06C4A61E16C41F00101E164042184F80E
:1025B0003510066500F0A8FFE806C3D52068102195
:1025C0004161204600F058F82807BDD4C2E700005A
:1025D00000284DD0B0B590F8351019B9044600F078
:1025E0004FF82046022180F83510D0F818C04FF27D
:1025F0000705BCF1000FCFF6E0751CBF002141625A
:1026000090E80A40C268102B0C6804EA05040C60CC
:10261000D0E9045442EA0402046A42EA0502456A27
:1026200042EA0E0242EA0402846A42EA0502C56AEC
:1026300042EA0402046B42EA05020D6842EA04021F
:1026400042EA050242EA0C0242EA03020A6001D1B0
:10265000C2698A61CA6842F01E02CA600021C16470
:10266000012280F83520BDE8B0400846704700BF21
:1026700001207047000000007047000000000000CB
:102680002DE9F04786B040F200080068C4F6020861
:10269000002640450596CDE903660296019603D0D3
:1026A00006B0BDE8F08700BF44F2E04040F60049C4
:1026B000C5F60200C5F602090DF1040A022750F81A
:1026C000041C032441F0010140F8041C50F8041CD0
:1026D0000D2501F0010100910099016841F0100100
:1026E0000160016801F0100100910099016841F05A
:1026F00008010160016801F008010091009901687A
:1027000041F002010160016801F0020100910099AD
:10271000016841F004010160016801F004010091C9
:102720000099016841F001010160016801F00101B7
:1027300000910099016841F008010160006851466C
:1027400000F00800009000987320019009F5806067
:10275000CDE902760494059502F04EF90820514621
:10276000CDE9010748460595CDE9036402F044F937
:1027700080205146CDE90107A9F500600595CDE916
:10278000036402F039F9C0205146CDE90107A9F5EB
:1027900080600595CDE9036402F02EF95020514682
:1027A000CDE9010708F180500595CDE9036402F0F9
:1027B00023F94FF48041012248464FF4804401251B
:1027C00002F002FA48465146CDE90145CDE90356EB
:1027D00002F012F906B0BDE8F0870000000000002A
:1027E00070B582B0044690F8340001284FF0020022
:1027F00000F086804FF0010E84F834E084F8350054
:102800000026D4F800C0B6EB134FA06CDCF80050E3
:1028100045F48045CCF80050DCF8005025F0020566
:10282000CCF80050DCF8005041EA0501CCF800106B
:1028300041F6B90141F69905C0F60001C163C0F641
:102840000005C0E91356A663E663266466640BD1EF
:102850000CF1280101F0E4FE002848D04020E0649B
:10286000012084F8350048E04164C4F838E0E363AF
:102870006264E16BB1F5803F29D30021E36B5B0813
:10288000E363A36B5B00A363E36BB3F5803F1ED3ED
:10289000E36B5B08E363A36B5B00A363E36BB3F5DC
:1028A000803F21BFE36B5B08E363A36B21BF5B0049
:1028B000A363E36BB3F5803F09D3E36B5B08E3638A
:1028C000A36B5B00A363E36BB1EB134FD6D1A16B9A
:1028D0000239A163A16B2164E16BE66B009602EB08
:1028E00081030CF1280100F063F80028B6D12068BC
:1028F000016841F0010101600020002184F83410DA
:1029000002B070BD0000000090F83410012901D120
:102910000220704740F270014FF0000CC2F200013B
:102920000B6890F8351002294FF0000123D144F6CE
:10293000D3514FF61842C1F26201CFF6FF72A3FBEA
:102940000113052180F8351001685B0A53430A68BA
:1029500022F001020A600A68D2070BD00A68D20787
:102960001CBF0A685FEAC27204D0043308D00A6848
:10297000D207F0D1002180F834C00846704700BF6C
:10298000C16C41F02001C164012180F835100321A0
:1029900080F834C00846704770470000000000000F
:1029A0001023002A08BF0C2302680020D150704772
:1029B0002DE9F04381B08768802F07D14FF48071F3
:1029C0004165012001B0BDE8F08300BF90F834708C
:1029D000012F03D1022001B0BDE8F083012780F868
:1029E000347090F83570012F28D1022780F83570A7
:1029F0000027476540F20F480568C4F2020840F21C
:102A00006F49DDF820C04FF03F0E082745454FF4D1
:102A10008026C4F2020919DC6F24C4F20204A54224
:102A200026DC3F24C4F20204A5423DDC1024C4F29B
:102A30000204A5425FD0282458E000BF4FF4006193
:102A40004165012001B0BDE8F08300BF4D451BDCAE
:102A500040F23F44C4F20204A5422DDC40F210448F
:102A6000C4F20204A54246D040F228443EE000BF32
:102A70009F24C4F20204A54228DC7024C4F202049C
:102A8000A54238D0882431E040F29F44C4F20204C9
:102A9000A54223DC40F27044C4F20204A5422AD0CD
:102AA00040F2884422E000BF4024C4F20204A54260
:102AB00021D058241AE000BF40F24044C4F202047E
:102AC000A54218D040F2584410E000BFA024C4F240
:102AD0000204A5420FD0B82408E000BF40F2A04491
:102AE000C4F20204A54206D040F2B844C4F2020483
:102AF000A54240F06D822C6834432C602B61D0E9F4
:102B0000163404F01F040EFA04F6DE516346044640
:102B1000FFF7C6F8206845F22F414845C5F6020187
:102B20001ADC9F22C4F2020290422FDC5722C4F228
:102B30000202904256DC1022C4F20202904200F0DF
:102B400094802822C4F20202904200F08E8040223B
:102B5000C4F2020286E000BF88422DDC40F2B74298
:102B6000C4F2020290424BDC40F27042C4F2020214
:102B700090427AD040F28842C4F20202904274D06D
:102B800040F2A042C4F202026CE000BF40F22742D1
:102B9000C4F20202904243DCA022C4F2020290423C
:102BA00063D0B822C4F2020290425ED040F21042DA
:102BB000C4F2020256E000BF45F26B42C5F60202C3
:102BC00090423FDC45F23042C5F6020290424CD0C2
:102BD00045F24442C5F60202904246D045F25842C0
:102BE0003EE000BF5822C4F2020290423DD0702263
:102BF000C4F20202904238D08822C4F2020231E0CC
:102C000040F2B842C4F2020290422ED045F208428D
:102C1000C5F60202904228D045F21C4220E000BFD7
:102C200040F22842C4F2020290421ED040F24042DA
:102C3000C4F20202904218D040F25842C4F202029A
:102C400010E000BF45F26C42C5F6020290420CD083
:102C500045F29442C5F60202904206D045F2804207
:102C6000C5F60202904240F0A581626EE36E002B31
:102C7000A36E53601CBFD4E91C235360404511DC94
:102C80006F22C4F2020290421EDC3F22C4F2020212
:102C9000904235DC1022C4F20202904257D0282222
:102CA00050E000BF48451BDC40F23F42C4F2020244
:102CB00090422DDC40F21042C4F20202904246D013
:102CC00040F228423EE000BF9F22C4F2020290423E
:102CD00028DC7022C4F20202904238D0882231E00F
:102CE00040F29F42C4F20202904223DC40F2704262
:102CF000C4F2020290422AD040F2884222E000BF91
:102D00004022C4F20202904221D058221AE000BFB1
:102D100040F24042C4F20202904218D040F25842BF
:102D200010E000BFA022C4F2020290420FD0B822ED
:102D300008E000BF40F2B842C4F20202904206D05E
:102D400040F2A042C4F20202904240F03381026895
:102D50000B2363F344020260426942F08002426145
:102D6000226C0AB9A26C1AB1082203681A430260E5
:102D7000484519DC9F21C4F2020188422EDC57210C
:102D8000C4F20201884255DC1021C4F202018842DB
:102D900000F092802821C4F20201884200F08C8069
:102DA0004021C4F2020185E088422DDC40F2B741A7
:102DB000C4F2020188424BDC40F27041C4F20201CD
:102DC000884279D040F28841C4F20201884273D02F
:102DD00040F2A041C4F202016CE000BF40F2274182
:102DE000C4F20201884243DCA021C4F202018842FD
:102DF00062D0B821C4F2020188425DD040F2104195
:102E0000C4F2020156E000BF45F26B41C5F6020173
:102E100088423FDC45F23041C5F6020188424BD082
:102E200045F24441C5F60201884245D045F2584179
:102E30003EE000BF5821C4F2020188423CD070211C
:102E4000C4F20201884237D08821C4F2020131E085
:102E500040F2B841C4F2020188422DD045F2084147
:102E6000C5F60201884227D045F21C4120E000BF90
:102E700040F22841C4F2020188421DD040F2404194
:102E8000C4F20201884217D040F25841C4F2020154
:102E900010E000BF45F26C41C5F6020188420BD03C
:102EA00045F29441C5F60201884205D045F28041C1
:102EB000C5F60201884274D1216E0A68D20303D597
:102EC0000A6842F480720A60E16E19B10A6842F43D
:102ED00080720A60404511DC6F21C4F20201884211
:102EE0001EDC3F21C4F20201884235DC1021C4F20D
:102EF0000201884255D0282150E000BF48451BDC24
:102F000040F23F41C4F2020188422DDC40F2104100
:102F1000C4F20201884244D040F228413EE000BFA2
:102F20009F21C4F20201884228DC7021C4F2020110
:102F3000884236D0882131E040F29F41C4F202013C
:102F4000884223DC40F27041C4F20201884228D05A
:102F500040F2884122E000BF4021C4F202018842D1
:102F60001FD058211AE000BF40F24041C4F20201D4
:102F7000884216D040F2584110E000BFA021C4F2B0
:102F8000020188420DD0B82108E000BF40F2B841EC
:102F9000C4F20201884204D040F2A041C4F202010E
:102FA0008842016841F001010160002001B0BDE8E4
:102FB000F08300BF0268052363F343020260226CC2
:102FC0001AB9A26C002A3FF4D3AE0422CDE600BFAA
:102FD0004FF0010E042748F220068CE500000000A7
:102FE0002DE9F041044601F0FFFD1CB3054694F8BD
:102FF0003500022822D140F20F472668C4F20207AA
:1030000040F26F48BE426FF00E00C4F202081DDCB1
:103010006F21C4F202018E422ADC3F21C4F2020178
:103020008E4241DC1021C4F202018E4263D028217D
:103030005CE000BF0120BDE8F08100BF802060653A
:10304000002084F834000120BDE8F08146451BDCF7
:1030500040F23F41C4F202018E422DDC40F21041A9
:10306000C4F202018E4246D040F228413EE000BF49
:103070009F21C4F202018E4228DC7021C4F20201B9
:103080008E4238D0882131E040F29F41C4F20201E3
:103090008E4223DC40F27041C4F202018E422AD0FB
:1030A00040F2884122E000BF4021C4F202018E427A
:1030B00021D058211AE000BF40F24041C4F2020181
:1030C0008E4218D040F2584110E000BFA021C4F257
:1030D00002018E420FD0B82108E000BF40F2B84193
:1030E000C4F202018E4206D040F2A041C4F20201B5
:1030F0008E42314607D13146306820F01E0041F83B
:10310000140B6FF080000A68464500EA0200086070
:103110001ADC9F20C4F20200864233DC5720C4F23E
:10312000020086425ADC1020C4F20200864200F0FF
:1031300097802820C4F20200864200F0918040204F
:10314000C4F202008AE000BF45F22F40C5F602003B
:1031500086422DDC40F2B740C4F2020086424BDCCE
:1031600040F27040C4F20200864279D040F28840BA
:10317000C4F20200864273D040F2A040C4F20200C2
:103180006CE000BF40F22740C4F20200864243DCFC
:10319000A020C4F20200864262D0B820C4F202002D
:1031A00086425DD040F21040C4F2020056E000BFFB
:1031B00045F26B40C5F6020086423FDC45F23040E6
:1031C000C5F6020086424BD045F24440C5F60200E7
:1031D000864245D045F258403EE000BF5820C4F238
:1031E000020086423CD07020C4F20200864237D0F2
:1031F0008820C4F2020031E040F2B840C4F202007C
:1032000086422DD045F20840C5F60200864227D0FE
:1032100045F21C4020E000BF40F22840C4F202000A
:1032200086421DD040F24040C4F20200864217D0D0
:1032300040F25840C4F2020010E000BF45F26C407A
:10324000C5F6020086420BD045F29440C5F6020056
:10325000864205D045F28040C5F60200864204D180
:10326000206E016821F480710160306820F0010057
:10327000306000BF3068C00710D001F0B5FC401BC3
:103280000628F7D320206065002084F8340003204E
:1032900084F835000120BDE8F08100BF20680821D6
:1032A000B8424FF03F0211DC6F23C4F20203984290
:1032B0001EDC3F23C4F20203984235DC1023C4F223
:1032C0000203984257D0282350E000BF40451BDC42
:1032D00040F23F43C4F2020398422DDC40F2104317
:1032E000C4F20203984246D040F228433EE000BFB9
:1032F0009F23C4F20203984228DC7023C4F2020325
:10330000984238D0882331E040F29F43C4F2020350
:10331000984223DC40F27043C4F2020398422AD060
:1033200040F2884322E000BF4023C4F202039842E7
:1033300021D058231AE000BF40F24043C4F20203F8
:10334000984218D040F2584310E000BFA023C4F2C6
:10335000020398420FD0B82308E000BF40F2A04318
:10336000C4F20203984206D040F2B843C4F202030A
:10337000984240F0C380D4E9163707F01F07404554
:1033800002FA07F25A5019DC9F21C4F20201884266
:1033900032DC5721C4F20201884259DC1021C4F208
:1033A0000201884200F096802821C4F2020188427E
:1033B00000F090804021C4F2020189E045F22F41E3
:1033C000C5F6020188422DDC40F2B741C4F2020189
:1033D00088424BDC40F27041C4F20201884279D04D
:1033E00040F28841C4F20201884273D040F2A04109
:1033F000C4F202016CE000BF40F22741C4F20201B6
:10340000884243DCA021C4F20201884262D0B82184
:10341000C4F2020188425DD040F21041C4F20201C0
:1034200056E000BF45F26B41C5F6020188423FDC21
:1034300045F23041C5F6020188424BD045F2444185
:10344000C5F60201884245D045F258413EE000BF32
:103450005821C4F2020188423CD07021C4F202011A
:10346000884237D08821C4F2020131E040F2B841ED
:10347000C4F2020188422DD045F20841C5F602018E
:10348000884227D045F21C4120E000BF40F228418D
:10349000C4F2020188421DD040F24041C4F2020150
:1034A000884217D040F25841C4F2020110E000BF38
:1034B00045F26C41C5F6020188420BD045F29441B9
:1034C000C5F60201884205D045F28041C5F60201E9
:1034D00088420BD1616EA26EE06E4A6030B1016825
:1034E00021F480710160D4E91C014160002084F85E
:1034F0003400012184F83510BDE8F0810421012257
:1035000039E7000000000000F0B190F83510022902
:1035100018D180B540F20F420168C4F20202914214
:1035200014DC6F23C4F20203994225DC3F23C4F26A
:10353000020399423CDC1023C4F2020399425DD09D
:10354000282357E0802141650120704740F26F43F6
:10355000C4F2020399421BDC40F23F43C4F202036F
:1035600099422DDC40F21043C4F20203994245D047
:1035700040F228433EE000BF9F23C4F20203994279
:1035800028DC7023C4F20203994237D0882331E04B
:1035900040F29F43C4F20203994223DC40F270439D
:1035A000C4F20203994229D040F2884322E000BFCE
:1035B0004023C4F20203994220D058231AE000BFEE
:1035C00040F24043C4F20203994217D040F25843FC
:1035D00010E000BFA023C4F2020399420ED0B8232A
:1035E00008E000BF40F2B843C4F20203994205D09C
:1035F00040F2A043C4F20203994275D191424FF0C8
:10360000040280F8352011DC6F20C4F202008142F0
:1036100022DC3F20C4F20200814239DC1020C4F2D7
:103620000200814259D0282054E000BF40F26F4090
:10363000C4F2020081421BDC40F23F40C4F20200AF
:1036400081422DDC40F21040C4F20200814244D09D
:1036500040F228403EE000BF9F20C4F202008142B9
:1036600028DC7020C4F20200814236D0882031E08C
:1036700040F29F40C4F20200814223DC40F27040DD
:10368000C4F20200814228D040F2884022E000BF0C
:103690004020C4F2020081421FD058201AE000BF2F
:1036A00040F24040C4F20200814216D040F258403D
:1036B00010E000BFA020C4F2020081420DD0B8206B
:1036C00008E000BF40F2B840C4F20200814204D0DA
:1036D00040F2A040C4F202008142086820F00100DC
:1036E0000860002080BD00BF0A6822F00E020A6058
:1036F00045F25742C5F6020291420A6822F00102E1
:103700000A600FDC45F22F42C5F60202914219DC35
:1037100045F20842C5F60202914229D045F21C4208
:1037200022E000BF45F27F42C5F60202914213DC5F
:1037300045F25842C5F60202914219D045F26C4258
:1037400012E000BF45F23042C5F6020291420FD0AE
:1037500045F2444208E000BF45F29442C5F6020239
:10376000914205D045F28042C5F6020291421AD13B
:10377000D0E9181CD0E916E30A6822F480720A60C6
:1037800003F01F01012202FA01F1CEF80410816E4C
:10379000CCF80410C16E31B10A6822F480720A605C
:1037A000D0E91C124A60002180F83410012180F811
:1037B0003510016D002994D08847002080BD00009D
:1037C0002DE9F04782B00021019140F2700148F2EA
:1037D000B513C2F20001C1F64E33856D40F26F4958
:1037E0000A680168C4F202092E68A2FB0328494551
:1037F0002A6815DC9F22C4F2020291422CDC572277
:10380000C4F20202914251DC1022C4F2020291423F
:103810007BD02822C4F20202914276D040226FE08F
:1038200045F22F43C5F60203994229DC40F2B74323
:10383000C4F20203994245DC40F27042C4F2020233
:10384000914262D040F28842C4F2020291425CD0BE
:1038500040F2A04254E000BF40F22742C4F202020C
:1038600091423FDCA022C4F2020291424DD0B82224
:10387000C4F20202914248D040F2104240E000BF40
:1038800045F26B43C5F60203994275DC45F23043BD
:10389000C5F60203994200F0828045F24443C5F622
:1038A000020399427BD045F2584373E05822C4F298
:1038B0000202914229D07022C4F20202914224D025
:1038C00088221DE040F2B843C4F2020399421CD0A2
:1038D00045F20843C5F60203994260D045F21C4305
:1038E00058E000BF40F22842C4F2020291420CD0DC
:1038F00040F24042C4F20202914206D040F25842E5
:10390000C4F20202914240F04783C26D082302F0E4
:103910001F0240F20F4A9340C4F2020A334200F001
:10392000D68051454FF0040412DC6F27C4F2020721
:10393000B94265DC3F27C4F20207B94200F3948024
:103940001027C4F20207B94200F0B5802827ADE085
:10395000494561DC40F23F47C4F20207B94200F337
:103960008B8040F21047C4F20207B94200F0A380F6
:1039700040F228479AE000BF45F26C43C5F60203C7
:1039800099420CD045F28043C5F60203994206D015
:1039900045F29443C5F60203994240F0FD820B685C
:1039A000C76D07F01F070426BE40164218BF13F06C
:1039B00004041BD10226BE40164218BF13F00204B5
:1039C0003AD1FA40120740F1E78213F0080200F002
:1039D000E3820A6822F00E020A60012101FA07F26E
:1039E0006A604165002280F83420CDE21A046E60DE
:1039F00034D49A0636D40A6822F004020A6031E010
:103A00009F27C4F20207B94240DC7027C4F20207C4
:103A1000B94250D0882749E040F29F47C4F20207DC
:103A2000B9423BDC40F27047C4F20207B94242D0CF
:103A300040F288473AE000BF1A046E6000F1B0829D
:103A40009A0600F1B1820A6822F00A020A60002197
:103A500080F83410012180F83510A5E2D90301D493
:103A6000816C94E2016C92E24027C4F20207B942F1
:103A700021D058271AE000BF40F24047C4F20207A5
:103A8000B94218D040F2584710E000BFA027C4F256
:103A90000207B9420FD0B82708E000BF40F2A047A4
:103AA000C4F20207B94206D040F2B847C4F2020796
:103AB000B94218BF08240F68274208D00F6827F0C2
:103AC00004070F60AB60436D43F0010343650123BE
:103AD000934033426FD0514510DC6F27C4F2020788
:103AE000B9421DDC3F27C4F20207B94234DC10277B
:103AF000C4F20207B94256D028274FE049451BDCE3
:103B000040F23F47C4F20207B9422DDC40F21047B1
:103B1000C4F20207B94246D040F228473EE000BF57
:103B20009F27C4F20207B94228DC7027C4F20207BB
:103B3000B94238D0882731E040F29F47C4F20207EB
:103B4000B94223DC40F27047C4F20207B9422AD0DE
:103B500040F2884722E000BF4027C4F20207B94282
:103B600021D058271AE000BF40F24047C4F20207B4
:103B7000B94218D040F2584710E000BFA027C4F265
:103B80000207B9420FD0B82708E000BF40F2A047B3
:103B9000C4F20207B94206D040F2B847C4F20207A5
:103BA000B94240F003824F693F0604D5AB60436DD4
:103BB00043F0020343650423934033426FD05145E1
:103BC00010DC6F27C4F20207B9421DDC3F27C4F2A4
:103BD0000207B94234DC1027C4F20207B94256D0BA
:103BE00028274FE049451BDC40F23F47C4F202075B
:103BF000B9422DDC40F21047C4F20207B94246D068
:103C000040F228473EE000BF9F27C4F20207B942B6
:103C100028DC7027C4F20207B94238D0882731E087
:103C200040F29F47C4F20207B94223DC40F27047DA
:103C3000C4F20207B9422AD040F2884722E000BF0E
:103C40004027C4F20207B94221D058271AE000BF2A
:103C500040F24047C4F20207B94218D040F2584738
:103C600010E000BFA027C4F20207B9420FD0B82766
:103C700008E000BF40F2A047C4F20207B94206D0F4
:103C800040F2B847C4F20207B94240F097810F688A
:103C9000BF0704D5AB60436D43F0040343651023B5
:103CA00003FA02F2324200F0828051454FF00803DD
:103CB00010DC6F27C4F20207B9421DDC3F27C4F2B3
:103CC0000207B94234DC1027C4F20207B94256D0C9
:103CD00028274FE049451BDC40F23F47C4F202076A
:103CE000B9422DDC40F21047C4F20207B94246D077
:103CF00040F228473EE000BF9F27C4F20207B942C6
:103D000028DC7027C4F20207B94238D0882731E096
:103D100040F29F47C4F20207B94223DC40F27047E9
:103D2000C4F20207B9422AD040F2884722E000BF1D
:103D30004027C4F20207B94221D058271AE000BF39
:103D400040F24047C4F20207B94218D040F2584747
:103D500010E000BFA027C4F20207B9420FD0B82775
:103D600008E000BF40F2A047C4F20207B94206D003
:103D700040F2B847C4F20207B94218BF04230F68E3
:103D80001F4214D0AA600A6852030A6808D4D205F8
:103D900008D40A6822F008020A60016C21B906E022
:103DA000110351D4016C11B1044688472046C16DFE
:103DB00001F01F02202101FA02F3334200F0AB8030
:103DC00001681027514511DC6F26C4F20206B1428A
:103DD0001EDC3F26C4F20206B14239DC1026C4F2D2
:103DE0000206B1425BD0282654E000BF49451BDCE7
:103DF00040F23F46C4F20206B14231DC40F21046C6
:103E0000C4F20206B1424AD040F2284642E000BF66
:103E10009F26C4F20206B1422CDC7026C4F20206D0
:103E2000B1423CD0882635E040F29F46C4F20206FB
:103E3000B14227DC40F27046C4F20206B1422ED0F5
:103E400040F2884626E000BF816C0029ACD1AEE785
:103E50004026C4F20206B14221D058261AE000BF23
:103E600040F24046C4F20206B14218D040F2584631
:103E700010E000BFA026C4F20206B1420FD0B8265F
:103E800008E000BF40F2A046C4F20206B14206D0EC
:103E900040F2B846C4F20206B14218BF02270E68CB
:103EA0003E4238D0AB6090F83530042B0B6819D106
:103EB00023F016030B604B6923F080034B61036C06
:103EC0000BB9836C1BB10B6823F008030B603F2117
:103ED0009140A960002180F83410012180F835104C
:103EE000016D54E05A030A680CD4D2050ED40A6856
:103EF00022F010020A60002180F83410012180F8BD
:103F0000351003E0110301D4416C00E0C16B11B125
:103F1000044688472046416D00293DD0416DC907C0
:103F200034D0042180F8351001684FEA98220B68DC
:103F300023F001030B60019B0133019393421AD8D4
:103F40000B68DB0717D0019B01330193934212D812
:103F50000B68DB070FD0019B0133019393420AD812
:103F60000B68DB0707D0019B01330193934202D812
:103F70000B68DB07DFD1002280F834200968C9070D
:103F80004FF0030108BF012180F83510C16C19B151
:103F900002B0BDE8F047084702B0BDE8F08700BFB7
:103FA000D90301D4416CF2E7C16BF0E70B6804233D
:103FB000934033427FF403AE71E600BF0B686EE6B8
:103FC0002DE9F041044600F00FFEFCB140F26F48CD
:103FD00005462068C4F2020840451BDC9F21C4F25C
:103FE0000201884232DC5721C4F20201884259DCC6
:103FF0001021C4F20201884200F083802821C4F21B
:104000000201884200F07D80402175E00120BDE87A
:10401000F08100BF45F22F41C5F60201884229DC3C
:1040200040F2B741C4F20201884247DC40F27041DD
:10403000C4F20201884264D040F28841C4F2020115
:1040400088425ED040F2A04156E000BF40F22741D6
:10405000C4F20201884241DCA021C4F2020188427C
:104060004FD0B821C4F2020188424AD040F2104138
:1040700042E000BF45F26B41C5F60201884200F301
:10408000B38045F23041C5F60201884200F0BF809E
:1040900045F24441C5F60201884200F0B88045F27D
:1040A0005841AFE05821C4F20201884229D0702162
:1040B000C4F20201884224D088211DE040F2B841B8
:1040C000C4F2020188421CD045F20841C5F6020143
:1040D000884200F09C8045F21C4193E040F2284168
:1040E000C4F2020188420CD040F24041C4F2020105
:1040F000884206D040F25841C4F20201884240F0A2
:104100001B81002184F83410022184F835100168E5
:1041100021F00101016000BF20680168C9070DD0CE
:1041200000F062FD401B0628F6D3202060650320C6
:1041300084F835000120BDE8F08100BF48F23F025D
:1041400004F108060168CFF61062114065694CCE93
:104150001143A2691943E3693143266A0D43616A39
:104160002B43042943EA060343EA020303D1D4E9BB
:104170000B652E43334341F20006C5F60046366810
:10418000B6F1005F0FD36568A5F129061F2E00F276
:1041900035820127B7403F26CCF2C036374200F0C7
:1041A0002D8243F4801303600429436923F007033D
:1041B00041EA030140F0DC80D4E90A53002B41EAD4
:1041C000050100F0D580B2F5005F00F0B780002A4D
:1041D00040F0C080022D00F0C080012D00F0B480BE
:1041E000002D00F0BA80C3E045F26C41C5F6020133
:1041F00088420CD045F28041C5F60201884206D0C3
:1042000045F29441C5F60201884240F0958004F1E0
:10421000080E002184F83410022184F8351001685A
:10422000A3699EE80450A2F18005E769B5FA85F517
:1042300066696D09402A4FEA853543EA07026FF344
:10424000101142EA060208BF102541EADC0142EAE9
:104250000E02236A294341EAD20141EA131140F8D0
:104260000819C0B2CD2148433C2101EA9020E06505
:104270002046FDF781FCE16D012201F01F0102FAE9
:1042800001F141602068404500F381809F21C4F224
:104290000201884214DC5721C4F20201884227DC63
:1042A0001021C4F20201884200F0C7802821C4F224
:1042B0000201884200F0C1804021C4F20201B9E04D
:1042C00040F22741C4F20201884221DCA021C4F25D
:1042D0000201884200F0B180B821C4F20201884294
:1042E00000F0AB8040F21041C4F20201A2E000BF36
:1042F0005821C4F20201884200F09F807021C4F26C
:104300000201884200F099808821C4F2020191E004
:1043100040F22841C4F20201884200F08E8040F24F
:104320004041C4F20201884200F0878040F25841C7
:10433000C4F202017EE000BF4020F7E6032D17D84B
:10434000DFE805F00E0B0E02A3F1C072B2FA82F2A2
:10435000520904E0032D03D30AD1C3F300623AB13A
:1043600040206065012084F83500BDE8F08100BF81
:1043700041612046FDF700FCE16D3F2201F01F0185
:1043800002FA01F18160206840457FF77FAF45F276
:104390002F41C5F60201884216DC40F2B741C4F253
:1043A0000201884226DC40F27041C4F202018842D8
:1043B00043D040F28841C4F2020188423DD040F22D
:1043C000A041C4F2020135E045F26B41C5F602019D
:1043D00088421FDC45F23041C5F6020188422CD0EC
:1043E00045F24441C5F60201884226D045F25841C3
:1043F0001EE000BF40F2B841C4F2020188421CD066
:1044000045F20841C5F60201884216D045F21C412A
:104410000EE000BF45F26C41C5F6020188420CD0A7
:1044200045F29441C5F60201884206D045F280412A
:10443000C5F60201884240F0D98045F2574C45F656
:10444000FC0EC5F6020CC5F6020E60450EDC45F208
:104450002F41C5F60201884218DC45F20841C5F635
:104460000201884228D045F21C4121E045F27F41FB
:10447000C5F60201884213DC45F25841C5F6020137
:10448000884219D045F26C4112E000BF45F230413C
:10449000C5F6020188420FD045F2444108E000BF52
:1044A00045F29441C5F60201884205D045F28041AB
:1044B000C5F60201884247D100F0FC014CF6CD421E
:1044C0000839CCF6CC42A1FB0212AEF1FC05AEF1EC
:1044D0007C061309A26803F01F01802A4FF0010235
:1044E00005EB8305256602FA01F26666A26605D130
:1044F00000206060286072601EE000BF6368D9B26F
:104500005F1E072F2960726016D84E1E082E19D222
:1045100060450EF1440237DC45F22F41C5F6020139
:10452000884241DC45F20841C5F60201884251D07B
:1045300045F21C414AE000BF00206067C4E91B004F
:1045400054E000BFE06E4CE000F0F8014AF6AB2208
:104550001039CAF6AA22A1FB021240F20F43C4F29C
:10456000020308251109984203F1AA060B4688BFE9
:1045700005EB121340F60005B042C4F2020505F146
:10458000800628BF0B46A5E745F27F41C5F602012C
:10459000884213DC45F25841C5F60201884219D021
:1045A00045F26C4112E000BF45F23041C5F6020110
:1045B00088420FD045F2444108E000BF45F28041F7
:1045C000C5F60201884205D045F29441C5F60201C4
:1045D00088421BD10EEB83000121E066B1402267C7
:1045E000616700210160D4E91C0141600020606521
:1045F000012184F83510BDE8F08100BFA5F14F0717
:10460000042F38BF43F48013CDE500BF40F600000F
:10461000C4F2020000F1FC0E00F5A072DAE700001F
:1046200030B110B590F83440012C03D1022010BDF8
:1046300001207047012480F8344090F83540012C67
:104640002CD1022480F8354000244465D0F800C005
:10465000DCF8004024F00104CCF800400446FDF7EB
:10466000AFFB40F20F4C2068C4F2020C40F26F41E5
:104670006045C4F2020119DC6F23C4F202039842C0
:1046800026DC3F23C4F2020398423DDC1023C4F22F
:10469000020398425FD0282358E000BF002180F831
:1046A00034104FF400614165012010BD88421BDCCD
:1046B00040F23F43C4F2020398422DDC40F2104323
:1046C000C4F20203984246D040F228433EE000BFC5
:1046D0009F23C4F20203984228DC7023C4F2020331
:1046E000984238D0882331E040F29F43C4F202035D
:1046F000984223DC40F27043C4F2020398422AD06D
:1047000040F2884322E000BF4023C4F202039842F3
:1047100021D058231AE000BF40F24043C4F2020304
:10472000984218D040F2584310E000BFA023C4F2D2
:10473000020398420FD0B82308E000BF40F2B8430C
:10474000C4F20203984206D040F2A043C4F202032E
:10475000984240F02F8103680B2262F34403036008
:10476000226C1AB1082302681A430260884219DCDD
:104770009F22C4F20202904232DC5722C4F20202AB
:10478000904259DC1022C4F20202904200F096805E
:104790002822C4F20202904200F090804022C4F22B
:1047A000020289E045F22F42C5F6020290422DDC5A
:1047B00040F2B742C4F2020290424BDC40F2704237
:1047C000C4F20202904279D040F28842C4F202025E
:1047D000904273D040F2A042C4F202026CE000BFEB
:1047E00040F22742C4F20202904243DCA022C4F20B
:1047F0000202904262D0B822C4F2020290425DD01E
:1048000040F21042C4F2020256E000BF45F26B4291
:10481000C5F6020290423FDC45F23042C5F6020284
:1048200090424BD045F24442C5F60202904245D038
:1048300045F258423EE000BF5822C4F202029042C4
:104840003CD07022C4F20202904237D08822C4F2D7
:10485000020231E040F2B842C4F2020290422DD08E
:1048600045F20842C5F60202904227D045F21C42AA
:1048700020E000BF40F22842C4F2020290421DD064
:1048800040F24042C4F20202904217D040F2584235
:10489000C4F2020210E000BF45F26C42C5F602020B
:1048A00090420BD045F29442C5F60202904205D0E8
:1048B00045F28042C5F60202904274D1236E1A6816
:1048C000D20303D51A6842F480721A60E36E1BB1FA
:1048D0001A6842F480721A60604511DC6F21C4F2DC
:1048E000020188421EDC3F21C4F20201884235DC0D
:1048F0001021C4F20201884255D0282150E000BFA7
:1049000088421BDC40F23F41C4F2020188422DDCA8
:1049100040F21041C4F20201884244D040F22841E2
:104920003EE000BF9F21C4F20201884228DC7021D2
:10493000C4F20201884236D0882131E040F29F4122
:10494000C4F20201884223DC40F27041C4F2020149
:10495000884228D040F2884122E000BF4021C4F2C2
:10496000020188421FD058211AE000BF40F24041A6
:10497000C4F20201884216D040F2584110E000BF54
:10498000A021C4F2020188420DD0B82108E000BF86
:1049900040F2B841C4F20201884204D040F2A04182
:1049A000C4F202018842016841F001010160002067
:1049B00010BD00BF0268052363F343020260226C4E
:1049C000002A3FF4D3AE0423CDE60000000000002F
:1049D000B0B5044600F008F940F268010546C2F29D
:1049E0000001621C097818BF0C4400BF00F0FCF8FD
:1049F000401BA042FAD3B0BD2DE9F04F83B00F6841
:104A0000002F00F0D98000F126420A2302F1FF7640
:104A100042F20042C5F602024FEAB625904200F18A
:104A2000200208BF09230192092D38BF4FEAB6239F
:104A300000244FF0010E00264FF0000800930AE01A
:104A400008F101080F6837FA08F206F1020604F1CE
:104A5000040400F0B1800EFA08FC17EA0C09EFD04C
:104A6000D1F804A0BAF1120F00F29E800EFA0AF7F4
:104A700017F0061F00F098800322876802FA06FEEE
:104A8000CA6827EA0E05B2402A43826042684FEAAC
:104A90001A154FEA480B6FEA0E0E22EA0C0205FACD
:104AA00008F52A4342604AF01005C268122D8D684D
:104AB00002EA0E0205FA0BF542EA0502C26014D1C1
:104AC0006FF00302019D02EA580204F01C030F2755
:104AD00055F802C09F40D1F810A02CEA07070AFA47
:104AE00003F33B43AB50D1F804A00AF00302036880
:104AF00002FA0BF203EA0E035FEACA074FF0010E57
:104B000042EA030202609BD544F2F44340F2084CAF
:104B1000C5F60203C5F6000C0F254FF0B04A1A681F
:104B200042F002021A601A6802F00202029228F0B1
:104B30000302029B04F00C0352F80C709D40AF433B
:104B4000009D05FA03F33B4342F80C3040F2040C9D
:104B5000C5F6000CDCF87C204B6842EA0907DD034F
:104B600058BF22EA09079D03CCF87C70DCF880204E
:104B700042EA090758BF22EA0907DD02CCF8807033
:104B8000DAF8002042EA090758BF22EA09079B0227
:104B9000CAF80070DCF8002042EA090758BF22EA90
:104BA0000907CCF800704BE70322B34602FA06F778
:104BB0006FEA070E77E700BF03B0BDE8F08F000093
:104BC000426951404161704712B10183704700BF93
:104BD000418370470000000041F20000C5F600402C
:104BE0000068000C7047000045F28800C2F2000027
:104BF000006870470000000090F84120202A03D18F
:104C000090F84020012A01D102207047242280F828
:104C100041200268136823F001031360136823F432
:104C200080531360136819431160116841F001014A
:104C30001160202180F84110002180F840100020F0
:104C4000704700000000000010B310B590F841104C
:104C500031B9002180F84010044600F06DFA20467A
:104C6000242180F8411090E81210C3680A68012BD3
:104C700022F001020A6024F070620A618A6822F45C
:104C800000428A6006D14CF400428A600AE000BF0C
:104C900001207047022B4CF404428A6002D14FF489
:104CA00000624A604A6800F1100C42F0007242F45F
:104CB00000424A60CA6822F40042CA609CE81C10A4
:104CC0001A4342EA0422CA60026A42EA0C020A60FB
:104CD0000A6842F001020A6000214164202280F843
:104CE0004120016380F84210002010BD0000000048
:104CF0002DE9F04F83B0044690F84100202807D1F9
:104D00000C9F4FB10D9D3DB194F8400001280BD18F
:104D1000022003B0BDE8F08F4FF400706064012002
:104D200003B0BDE8F08F00BF8B4692469946012044
:104D300084F84000FFF758FF216806468969090496
:104D40000AD500BFFFF750FF801B192800F2E08052
:104D5000206880690004F5D4222084F841004020B6
:104D600084F842002046594652464B464FF0000810
:104D7000C4F84480676265850E9DC4F83480CDE92F
:104D8000005604F005F828B184F84080012003B0F3
:104D9000BDE8F08F618D42F2004C49F60002C8F286
:104DA000FF1CC7F60042B1F5807F6FF39F2B09D33C
:104DB00021684B681A4042EA0B0242EA0C00486044
:104DC000FF210CE0618D2368C8B25F683A4042EA77
:104DD00000400CF5803240EA0B001043586049F661
:104DE000004940F20008CFF600496F1C4FF0FF0A5F
:104DF000C0F2FF18218511E0618D2185C9B250F8FC
:104E0000042F02EA090242EA01414FF0007241EA2E
:104E10000B0111430160608D00285BD0206881691F
:104E200049070CD4D7B3002D70D000BFFFF7DCFECC
:104E3000801BA8426CD8206881694907F6D5406A72
:104E4000616A0870218D606A01306062481E2085A9
:104E5000618D01396185618D0029DCD00004DAD1D2
:104E60002068816909060CD437B3002D4ED000BFED
:104E7000FFF7BAFE801BA8424AD82068816909065C
:104E8000F6D5618DB1F5807FB6D3A4F828A042464F
:104E900050F8041F01EA0901B9E700BF8169490719
:104EA000CDD4816949075CBF81695FEA4171C6D48D
:104EB00081694907F2D5C2E781690906E1D48169B0
:104EC00009065CBF81695FEA0161DAD4816909067C
:104ED000F2D5D6E720462946324604F031F80028BC
:104EE0007FF41DAF206820214EF60003C161CFF68C
:104EF000006342681A40426084F84110002084F840
:104F0000420084F8400003B0BDE8F08FFFF76CFE6C
:104F1000606C40F020006064202084F84100002094
:104F200084F8420084F84000012003B0BDE8F08F0F
:104F30002DE9F04F83B0044690F84100202807D1B6
:104F40000C9F4FB10D9D3DB194F8400001280BD14D
:104F5000022003B0BDE8F08F4FF4007060640120C0
:104F600003B0BDE8F08F00BF8B4692469946012002
:104F700084F84000FFF738FE216806468969090475
:104F80000AD500BFFFF730FE801B192800F2C4804D
:104F9000206880690004F5D4212084F84100402075
:104FA00084F842002046594652464B464FF00008CE
:104FB000C4F84480676265850E9DC4F83480CDE9ED
:104FC000005603F051FF28B184F84080012003B05F
:104FD000BDE8F08F608D49F6004A40F20009CFF637
:104FE000004AB0F5807FC0F2FF190DD36FF39F2BFD
:104FF0002068416801EA0A0141EA0B0141EA09011E
:105000004160FF200FE000BF6FF39F2B608D216890
:10501000C3B24A6802EA0A0242EA034242EA0B02C7
:1050200042F000724A606F1C4FF0FF08208511E0CB
:10503000618D2185C9B250F8042F02EA0A0242EAC2
:1050400001414FF0007241EA0B0111430160608D94
:10505000002843D020462946324603F0A5FF002809
:105060007FF47DAF616A206811F8012B8262616272
:10507000618D01396185218D01392185628D002A7B
:10508000E5D00904E3D1816909060CD4C7B1002D2C
:1050900040D000BFFFF7A8FD801BA8423CD8206885
:1050A00081690906F6D5618DB1F5807FC0D3A4F87A
:1050B00028804A4650F8041F01EA0A01C3E700BFEE
:1050C00081690906EFD4816909065CBF81695FEADD
:1050D0000161E8D481690906F2D5E4E72046294652
:1050E000324603F02DFF00287FF439AF20682021DD
:1050F0004EF60003C161CFF6006342681A40426079
:1051000084F84110002084F8420084F8400003B085
:10511000BDE8F08FFFF768FD606C40F02000606430
:10512000202084F84100002084F8420084F84000E8
:10513000012003B0BDE8F08F7047000000000000C0
:1051400040F2680045F28801C2F20000C2F200019C
:1051500000780A68104408607047000000000000F2
:1051600080B5032000F0FCF801F022FE44F2184163
:105170004FF62433C5F60201C0F600030A68C2F3F5
:1051800003229A5C096801F00F0102F01F02595CCA
:10519000D04040F27402C2F2000201F01F0120FA76
:1051A00001F1116040F27001C2F2000108600F20AD
:1051B00000F00AF800281CBF012080BD00F07CF838
:1051C000002080BD00000000B0B540F26805C2F2CA
:1051D00000052978F1B1044640F27000C2F20000E7
:1051E0004FF47A72B2FBF1F10068B0FBF1F002F01B
:1051F00027FC0F2C01464FF001000AD8002918BFE8
:10520000B0BD4FF0FF300022214600F079F80020B9
:105210006C60B0BD0120B0BDB0B502784EF69C5CAC
:10522000CEF2000C43784CF8043CFAB14368CCF859
:105230000030037BC17A90F80AE0457B447A42EA69
:105240000372837B42EA0161C27B41EACE41007A6C
:1052500041EA854141EA434141EA024141EA0421F0
:1052600041EA4000CCF80400B0BD00BF0020CCF8FB
:105270000000CCF80400B0BD4EF62450CEF2000081
:10528000BFF35F8F016821F4803101600021016765
:1052900070470000000000004EF6245140F001006D
:1052A000CEF200010867086840F480300860BFF360
:1052B0004F8FBFF36F8F704781B044F2F440C5F653
:1052C0000200016841F002010160006800F0020084
:1052D0000090009801B07047002848BF704700F068
:1052E0001F01012202FA01F14EF20012C0F34A102E
:1052F000CEF2000242F820107047000000000000CB
:1053000070B54EF60C5C4FF0FF36CEF2000C00F19B
:10531000604505F56445DCF80030C3F3022E8EF0DD
:105320000703042B28BF0423BEF1030406FA03F38A
:1053300021EA030100F00F0338BF0024043B0028DA
:10534000634406FA04F048BF03F10C05A14022EAC9
:10535000000008430001287070BD0000000000003C
:105360004EF60C514FF6FF03CEF200010A681A40C8
:1053700060F30A2242F0806040F0FD7008607047E0
:10538000B0B544F60C05C5F6020529684907296839
:1053900006D401F00701081A18BF0120B0BD00BFF4
:1053A00021F0070108432860FFF71EFC044600BFF8
:1053B00055F8080C800407D4FFF716FC001BB0F565
:1053C0007A7FF5D90120B0BD0020B0BD00000000FB
:1053D0002DE9F0411D46174688460446FFF704FCB8
:1053E00094F84010012903D10220BDE8F08100BFEC
:1053F0000646012084F8400094F84100012847D176
:1054000000206064422084F8410020688168890699
:1054100044D497E80E1081624262C36201683A691F
:1054200021F4400111434FF0006241F4800101601A
:1054300020464146C8F828C005F012F92068816866
:10544000090710D4002D45D0691C1BD181680907BC
:1054500009D4816809075CBF81685FEA017102D4E1
:1054600081680907F2D50821C160012084F8410054
:105470000020002184F84010BDE8F0812068816898
:105480000907F0D4FFF7B0FB801BA842F6D923E050
:105490000220002184F84010BDE8F081D5B1691CDC
:1054A00012D181688906B4D58168890644BF8168B4
:1054B0005FEA8161ADD581688906F2D4A9E700BFB2
:1054C000206881688906A4D5FFF78EFB801BA8425F
:1054D000F6D901E0FFF788FB042084F84100606CF6
:1054E00040F0010060640120002184F84010BDE814
:1054F000F081000000000000F0B581B015460F46B5
:105500000446FFF771FB94F84010012902D10220F4
:1055100001B0F0BD0646012084F8400094F8410037
:1055200001284FF0020029D10021616484F8410074
:1055300020688168890631D400222046394605F06A
:105540008FF8786AB0B920688168890710D4002D77
:1055500040D0691C1CD18168890709D481688907FA
:105560005CBF81685FEA817102D481688907F2D5E6
:105570000221C160012084F841000020002184F84C
:10558000401001B0F0BD00BF206881688907EFD4EA
:10559000FFF72AFB801BA842F6D91DE0D5B1691C94
:1055A00012D181688906C7D58168890644BF8168A0
:1055B0005FEA8161C0D581688906F2D4BCE700BF8B
:1055C000206880688006B7D5FFF70EFB801BA842D5
:1055D000F6D901E0FFF708FB042084F84100606C75
:1055E00040F0010060640120002184F8401001B007
:1055F000F0BD00000000000070B110B50168044665
:105600000A6822F001020A6000F07AF80020606463
:1056100084F8410010BD00BF012070470000000069
:1056200070B50446FFF7E0FA002C66D0054694F802
:10563000410028B9204600F067F841F28830A064A4
:1056400020686FF0FF03A168A66C026822F4706204
:1056500003EB0121114301608168890628D44FF6CC
:105660002F720168C0F2FF0263681140E66831439F
:105670002669D4E9072541EA0361636911434FF6BE
:10568000FE02294301604168CFF6E0721140A26931
:10569000194341EA064111434160016841F00101AB
:1056A000016000206064012184F8411070BD00BFDA
:1056B000D6B1711C12D181688906D0D5816889065E
:1056C00044BF81685FEA8161C9D581688906F2D4E7
:1056D000C5E700BF206881688906C0D5FFF784FA56
:1056E000401BB042F6D901E0FFF77EFA042084F8AF
:1056F0004100606C40F001006064012070BD00005A
:1057000070470000000000002DE9F04186B045F22E
:1057100000020068C5F20022002190420591CDE907
:1057200003110291019103D006B0BDE8F08100BFE2
:1057300044F2E04040F60044C5F60200C5F602041B
:10574000A4F5006601AD50F80C2C4FF0040842F4AB
:10575000804240F80C2C50F80C2C092702F48042AF
:105760000092009A50F8642C42F4804240F8642C75
:1057700050F8642C22F4804240F8642C026842F015
:1057800002020260026802F002020092009A0268BD
:1057900042F002020260026802F002020092009AE5
:1057A000026842F008020260026802F008020092F9
:1057B000009A026842F008020260026802F00802E1
:1057C0000092009A026842F010020260026802F041
:1057D00010020092009A026842F00802026000681B
:1057E00000F00800009000980220CDE9020103209B
:1057F000049030462946CDF804800597FFF7FCF861
:10580000402001900A20059030462946FFF7F4F821
:105810004FF400600190204629460597FFF7ECF809
:105820004FF480500190204629460597FFF7E4F891
:1058300004F580602946CDF804800597FFF7DCF871
:105840004FF400500190204629460597FFF7D4F801
:1058500006B0BDE8F08100002DE9F04115460F4685
:105860000446FFF7C1F92668B16994F84020012A7F
:1058700002D10220BDE8F0818046012084F840007A
:1058800094F8410001286FD1002F4FF000006064B0
:1058900070D0222084F84100306901220130A063D9
:1058A0003069013060632763706962F39B607061E7
:1058B000B161A06BA8B1681C38D0002D40F0848085
:1058C0002068806810F0060F5ED096F820003870CF
:1058D000206BA16B471C2763481EA063A06B0028A8
:1058E000EED120688168890710D4002D4CD0691C46
:1058F00032D18168890709D4816889075CBF8168D2
:105900005FEA817102D481688907F2D50221C16002
:10591000002043E096F820003870206BA16B471CF4
:105920002763481EA063A06B0028DAD02068816836
:1059300011F0060FEED1816811F0060F04BF8168E7
:1059400011F0060FE6D1816811F0060FEFD0E1E704
:10595000206881688907D9D4FFF746F9A0EB0800D1
:10596000A842F5D912E000BF0220002184F84010BF
:10597000BDE8F081606C40F0080060640120002107
:1059800084F84010BDE8F081FFF72EF9042084F878
:105990004100606C40F0010060640120012184F846
:1059A0004110002184F84010BDE8F081276B96F883
:1059B00020003870206BA16B471C2763481EA06332
:1059C000A06B00283FF48DAF2068806810F0060FB0
:1059D000EDD100BFFFF708F9A0EB0800A842D5D829
:1059E0002068806810F0060FF4D0DFE700000000A8
:1059F0002DE9F04115460F460446FFF7F5F82668F5
:105A000094F84010012903D10220BDE8F08100BFC5
:105A10008046012084F8400094F8410001286BD1B1
:105A2000002F4FF0000060646CD0122084F8410019
:105A300030690130E06230690130A06267627069EC
:105A400020F040607061E06AA0B1681C38D0002D81
:105A500040F082802068806840075DD5387886F8FD
:105A60002000606AE16A471C6762481EE062E06AE3
:105A70000028EFD120688168890710D4002D4BD011
:105A8000691C31D18168890709D4816889075CBFA5
:105A900081685FEA817102D481688907F2D50221A9
:105AA000C160002042E000BF387886F82000606ABC
:105AB000E16A471C6762481EE062E06A0028D9D0AC
:105AC000206881684907EFD4816849075CBF816815
:105AD0005FEA4171E8D481684907F2D5E4E700BF85
